:10000000000004203D080000AD080000AF0800001B
:10001000B1080000B3080000B5080000B7080000F0
:10002000000000000000000000000000B90800000F
:10003000BB08000000000000BD080000BF08000071
:10004000C1080000C108000000000000C108000055
:1000500000000000C10800000000000000000000D7
:10006000C1080000C1080000C1080000C10800006C
:10007000C1080000C1080000C1080000C10800005C
:10008000C1080000C10800000000000000000000DE
:10009000C1080000C10800000000000000000000CE
:1000A000C1080000C1080000C1080000C10800002C
:1000B000C1080000C1080000C1080000C10800001C
:1000C000C1080000C1080000C1080000C10800000C
:1000D000C108000000000000C1080000000000008E
:1000E000C108000000000000C1080000C1080000B5
:1000F00000000000C108000000000000C10800006E
:10010000000000000000000000000000C108000026
:10011000C108000000000000C1080000C108000084
:1001200000000000C1080000000000000000000006
:1001300000000000000000000000000000000000BF
:1001400000000000000000000000000000000000AF
:10015000C1080000000000000000000000000000D6
:10016000000000000000000000000000000000008F
:10017000000000000000000000000000000000007F
:10018000000000000000000000000000000000006F
:10019000000000000000000000000000000000005F
:10040000456E746572206D6F76652028652E672EA7
:100410002C2027653220653427293A20000000006F
:100420000A0000004D6F7665207375636365737312
:1004300066756C210A0D0000546869732069732089
:100440006E6F7420796F7572207069656365212104
:10045000210A0D00576869746520776F6E2121218C
:100460000A0D0000426C61636B20776F6E212121C1
:100470000A0D00001B630000726E62716B626E7287
:1004800070707070707070702020202020202020EC
:10049000202020202020202020202020202020205C
:1004A00020202020202020205050505050505050CC
:1004B000524E42514B424E520A3D3D3D3D20436813
:1004C0006573732047616D65203D3D3D3D0A0A0D12
:1004D0000000000020202020412042204320442012
:1004E000452046204720480D000000000A2020201B
:1004F0002D2D2D2D2D2D2D2D2D2D2D2D2D2D2D2D2C
:100500002D0A0D002564207C200000001B5B343781
:100510006D0000001B5B3130306D000020000000DA
:10052000E2999F00E2999C00E2999E00E2999D0069
:10053000E2999B00E2999A001B5B39376D0000003D
:100540001B5B33306D00000025732000202000006D
:100550001B5B306D000000000D0A00000A2D2D2DE0
:100560002D2D2D2D2D2D2D2D2D2D2D2D2D2D2D2DBB
:100570002D0A0D007465737400000000496E7661E9
:100580006C696420696E70757420666F726D617439
:100590002E2055736520666F726D6174206C696BD7
:1005A0006520276532206534272E0A00436F6F725D
:1005B00064696E61746573206F7574206F66207254
:1005C000616E67652E2055736520612D6820616E10
:1005D0006420312D382E0A002564000000000741F8
:1005E00000000000170000001800000008000000D4
:1005F0000900000000202020202020202020282882
:1006000028282820202020202020202020202020D2
:100610002020202020881010101010101010101012
:100620001010101010040404040404040404041042
:1006300010101010101041414141414101010101D0
:10064000010101010101010101010101010101019A
:1006500010101010101042424242424202020202A6
:10066000020202020202020202020202020202026A
:10067000101010102000000000000000000000001A
:10068000000000000000000000000000000000006A
:10069000000000000000000000000000000000005A
:1006A000000000000000000000000000000000004A
:1006B000000000000000000000000000000000003A
:1006C000000000000000000000000000000000002A
:1006D000000000000000000000000000000000001A
:1006E000000000000000000000000000000000000A
:1006F0000000000000232D302B2000686C4C0065AA
:10070000666745464700303132333435363738393D
:100710004142434445460030313233343536373870
:08072000396162636465660043
:08072800980000000100000030
:100730000348044B834202D0034B03B11847704770
:100740006C0000206C00002000000000064B0749F0
:10075000C91A891048BF0131491003D0044B0BB1AD
:1007600001481847704700BF6C0000206C00002053
:100770000000000010B5064C237843B9FFF7D8FFFE
:10078000044B13B10448AFF300800123237010BD64
:100790006C000020000000009046000008B5054BEA
:1007A0001BB105490548AFF30080BDE80840FFF7DD
:1007B000CDBF00BF00000000700000209046000088
:1007C000A3F5803A704700BF174B002B08BF134BAF
:1007D0009D46FFF7F5FF00218B460F461348144A4C
:1007E000121A02F0BAFF0E4B002B00D098470D4BA7
:1007F000002B00D098470020002104000D000D4878
:10080000002802D00C48AFF3008003F015F8200058
:10081000290001F009FB02F08BFD00BF0000080079
:100820000000000000000000000004206C00002018
:100830000802002000000000000000000F49104ADC
:10084000104B00F010F81049104A114B00F00BF853
:100850001049114A114B00F006F81149114A124B88
:1008600000F001F806E0521A03DD043A9858885067
:10087000FBDC704700F0FEF9FFF7A6FF0000002048
:100880006C000020044700006C0000206C00002079
:10089000704700006C0000206C00002070470000D2
:1008A0006C0000206C00002070470000FEE7FEE7AF
:1008B000FEE7FEE7FEE7FEE7FEE7FEE7FEE7FEE710
:1008C000FEE700BF80B483B000AF154B1B687B60B0
:1008D000144B1B683B607B68072B19D13B68023BBC
:1008E000032B13D801A252F823F000BFFD0800002B
:1008F000010900000509000009090000012308E0C2
:10090000002306E0002304E0002302E0002300E0CF
:10091000002318460C37BD465DF8047B704700BFC6
:100920003001FF003401FF0080B483B000AF154BED
:100930001B687B60144B1B683B607B68072B19D1DD
:100940003B68023B032B13D801A252F823F000BFEF
:100950006109000065090000690900006D090000D7
:10096000012308E0012306E0002304E0002302E065
:10097000002300E0002318460C37BD465DF8047BD9
:10098000704700BF3001FF003401FF0080B483B026
:1009900000AF154B1B687B60144B1B683B607B688A
:1009A000072B19D13B68023B032B13D801A252F845
:1009B00023F000BFC5090000C9090000CD090000EF
:1009C000D1090000012308E0002306E0002304E031
:1009D000002302E0002300E0002318460C37BD4648
:1009E0005DF8047B704700BF3001FF003401FF0059
:1009F00080B483B000AF154B1B687B60144B1B6841
:100A00003B607B68072B19D13B68023B032B13D853
:100A100001A252F823F000BF290A00002D0A0000AD
:100A2000310A0000350A0000012308E0012306E036
:100A3000012304E0012302E0012300E00023184623
:100A40000C37BD465DF8047B704700BF3001FF00E6
:100A50003401FF0080B483B000AF154B1B687B608E
:100A6000144B1B683B607B68072B19D13B68023B2A
:100A7000032B13D801A252F823F000BF8D0A000007
:100A8000910A0000950A0000990A0000012308E07D
:100A9000002306E0002304E0002302E0002300E03E
:100AA000002318460C37BD465DF8047B704700BF35
:100AB0003001FF003401FF0080B483B000AF154B5C
:100AC0001B687B60144B1B683B607B68072B19D14C
:100AD0003B68023B032B13D801A252F823F000BF5E
:100AE000F10A0000F50A0000F90A0000FD0A000002
:100AF000012308E0002306E0002304E0002302E0D5
:100B0000002300E0002318460C37BD465DF8047B47
:100B1000704700BF3001FF003401FF0080B483B094
:100B200000AF154B1B687B60144B1B683B607B68F8
:100B3000072B19D13B68023B032B13D801A252F8B3
:100B400023F000BF550B0000590B00005D0B0000A7
:100B5000610B0000012308E0002306E0002304E00D
:100B6000002302E0002300E0002318460C37BD46B6
:100B70005DF8047B704700BF3001FF003401FF00C7
:100B800080B483B000AF154B1B687B60144B1B68AF
:100B90003B607B68072B19D13B68023B032B13D8C2
:100BA00001A252F823F000BFB90B0000BD0B0000FA
:100BB000C10B0000C50B0000012308E0012306E083
:100BC000012304E0012302E0012300E00023184692
:100BD0000C37BD465DF8047B704700BF3001FF0055
:100BE0003401FF0080B483B000AF154B1B687B60FD
:100BF000144B1B683B607B68072B19D13B68023B99
:100C0000032B13D801A252F823F000BF1D0C0000E3
:100C1000210C0000250C0000290C0000002308E036
:100C2000002306E0002304E0012302E0012300E0AA
:100C3000002318460C37BD465DF8047B704700BFA3
:100C40003001FF003401FF0080B400AF074B084AB9
:100C50001B68C2F84435054B054ADB69C2F84C35C0
:100C600000BFBD465DF8047B704700BF0080FF00F9
:100C70000060005080B582B000AFFFF74FFF034621
:100C8000002B0CD0734B1B68002B08D1714B0D222D
:100C90001A60714B01221A606F4B00221A60002308
:100CA0007B6000237B6011E04FF47F024FF47F01F3
:100CB0007B68603351F8333019467B686033DB0062
:100CC00013445B680B607B6801337B607B681F2B80
:100CD00008D84FF47F027B68603352F83330B3F1A9
:100CE000FF3FE1D1FFF7B6FE0346002B05D05B4B7B
:100CF00029221A605A4B03221A60FFF7E3FD0346CC
:100D0000002B07D0574B584A1A604FF0502301224E
:100D1000C3F85825FFF708FE0346002B02D0534BBB
:100D200000221A60FFF732FE0346002B11D04FF06D
:100D30005023D3F8003403F00103002B09D04FF007
:100D400050230022C3F814214FF050230022C3F88F
:100D50001821FFF74DFE0346002B0DD04FF0502316
:100D6000D3F8003403F00103002B05D04FF05023DB
:100D70006FF00102C3F80024FFF79EFE0346002B2C
:100D800002D0364B65221A60FFF7FAFE0346002BAD
:100D900021D0374B1B68002B1DDA4FF05023032264
:100DA000C3F818254FF0502301229A6000BF4FF07E
:100DB0005023D3F80431002BF9D04FF050230022F8
:100DC000C3F804214FF050230122DA604FF0502382
:100DD0000122C3F81825FFF705FF0346002B1AD0A0
:100DE0001E4B7E221A60234B7E221A60224B7F22EA
:100DF0001A60224B00221A60214B00221A60214BFC
:100E000000221A60204B00221A60204B00221A6038
:100E10001F4B00221A6000F03FF81E4BD3F88C30B5
:100E20001C4A43F44063C2F88C30FFF70DFF194BA6
:100E3000D3F88830174A43F47003C2F88830BFF300
:100E40004F8F00BFBFF36F8F00BF00BF0837BD4695
:100E500080BD00BF204A00501C4900500C47005084
:100E60003C470050309503504400EFBE4C250350E2
:100E7000202403503C49005018210050049E035088
:100E8000089E035010111050242100502C210050B6
:100E9000A012205000ED00E080B485B000AF144BEC
:100EA000FB60144BBB604FF47F037B6007E0FA6884
:100EB000131FFB60BB68191FB96012681A60FA68DB
:100EC0007B689A42F3D23F233B600B4A3B6803F5B1
:100ED000E07352F82330084923F010023B6803F511
:100EE000E07341F823201437BD465DF8047B70475A
:100EF000FC0FFF00FCFF07200030005080B483B0DF
:100F000000AF78607B681B6800BF0C37BD465DF89A
:100F1000047B704780B400AF00BFBD465DF8047B22
:100F2000704780B400AF00BFBD465DF8047B7047DA
:100F300080B400AF00BFBD465DF8047B704780B44D
:100F400083B000AF786039603B6803F06043B3F171
:100F5000005F0CBF01230023DBB218460C37BD46EF
:100F60005DF8047B704780B582B000AF78600B46B7
:100F70007B807B887A68134400221A607B887A68B9
:100F800013441846FFF7BAFF00BF0837BD4680BDBF
:100F900080B483B000AF78600B467B807B887A6832
:100FA00013441B68002B14BF01230023DBB2184637
:100FB0000C37BD465DF8047B704780B483B000AF4A
:100FC000786039607B68D3F800223B681A437B68FD
:100FD000C3F8002200BF0C37BD465DF8047B7047A4
:100FE00080B483B000AF786039607B683A68C3F83A
:100FF000042300BF0C37BD465DF8047B704780B406
:1010000083B000AF786039607B683A68C3F8082322
:1010100000BF0C37BD465DF8047B704780B485B0D7
:1010200000AF78607B68D3F88034FB607B68FA6837
:10103000C3F88024FB6818461437BD465DF8047B6E
:10104000704780B483B000AF78607B680822C3F833
:10105000002500BF0C37BD465DF8047B704780B4A7
:1010600083B000AF78607B680022C3F8002500BF22
:101070000C37BD465DF8047B704780B485B000AF87
:10108000F860B9607A60FB68BA68C3F80C25FB6841
:101090007A68C3F8142500BF1437BD465DF8047B99
:1010A000704780B485B000AFF860B9607A60FB68C3
:1010B000BA68C3F80825FB687A68C3F8102500BF32
:1010C0001437BD465DF8047B704780B483B000AF31
:1010D00078600B46FB70FB787A68134401221A6033
:1010E00000BF0C37BD465DF8047B704780B483B009
:1010F00000AF786039603B685A783B689B7813434F
:10110000DBB21A463B689B8813433A6812781A434D
:101110007B68C3F86C2500BF0C37BD465DF8047BC7
:10112000704780B483B000AF786039607B683A68FC
:10113000C3F8242500BF0C37BD465DF8047B70471B
:1011400080B485B000AFF860B9607A60BA68FB68B7
:10115000C3F84425FB687A68C3F8482500BF1437F4
:10116000BD465DF8047B704780B485B000AFF86081
:10117000B9607A60BA68FB68C3F83425FB687A689E
:10118000C3F8382500BF1437BD465DF8047B7047AF
:1011900080B483B000AF78607B68D3F83C351846E4
:1011A0000C37BD465DF8047B704780B582B000AF58
:1011B000786039603B681B6919467868FFF7B1FFB2
:1011C0003B68143319467868FFF790FF3B689B7EB5
:1011D00083F00103DBB2002B07D03B6819683B6842
:1011E0005B681A467868FFF748FF3B681B7D012B58
:1011F0000ED13B689B7E83F00103DBB2002B07D04E
:101200003B6899683B68DB681A467868FFF749FFD6
:10121000FFF780FE00BF0837BD4680BD80B584B0B3
:1012200000AFF860B96011461A460B46FB711346D1
:10123000BB714FF48072B968F86800F078F94FF428
:101240008272B968F86800F072F94FF48472B96874
:10125000F86800F06CF94FF48872B968F86800F02B
:1012600066F94FF48E72B968F86800F060F94FF4CF
:101270009072B968F86800F05AF94FF49272B96840
:10128000F86800F054F94FF4A272B968F86800F0F9
:101290004EF94FF4A672B968F86800F048F94FF4B7
:1012A000A872B968F86800F042F94FF4AC72B968F6
:1012B000F86800F03CF9FFF72DFEBB79002B03D056
:1012C000B968F868FFF78CFEFFF724FE00BF1037FF
:1012D000BD4680BD80B586B000AFF860B9607A6069
:1012E0007A68B968F86800F075F97861FFF712FE5E
:1012F0007B6918461837BD4680BD80B582B000AF07
:10130000786039600C217868FFF7DFFEFFF702FE96
:1013100000BF00224FF48001786800F05BF90346BB
:10132000002BF6D03B68002B13D03B685B68002B8A
:101330000FD004217868FFF7C8FEFFF7EBFD00BF70
:101340003A684FF40031786800F044F90346002B06
:10135000F6D000BF0837BD4680BD000080B584B020
:1013600000AF78600B46FB700023FB6008217868B3
:10137000FFF7ABFEFB78002B0CD00A4BBB60FFF7EE
:10138000C9FD0022B9687868FFF7A4FFF860FB6820
:10139000002BF6D0FFF7BEFDFB6818461037BD46A0
:1013A00080BD00BF0001400080B584B000AF786010
:1013B00039600023FB6000217868FFF786FE3B68F8
:1013C000002B0CD0094BBB60FFF7A4FD3A68B9684D
:1013D0007868FFF77FFFF860FB68002BF6D0FFF717
:1013E00099FDFB6818461037BD4680BD100202000B
:1013F00080B582B000AF78600B467B807B88194651
:101400007868FFF7B0FDFFF785FD00BF0837BD46E0
:1014100080BD80B582B000AF786039603968786887
:10142000FFF7CBFDFFF776FD00BF0837BD4680BD57
:1014300080B582B000AF7860396039687868FFF7AE
:10144000CFFDFFF767FD00BF0837BD4680BD80B503
:1014500082B000AF7860396039687868FFF7CFFDF7
:10146000FFF758FD00BF0837BD4680BD80B584B08A
:1014700000AF7860FFF75CFD7868FFF7CFFDF8609C
:10148000FFF756FDFB6818461037BD4680BD80B596
:1014900082B000AF78607868FFF7D3FDFFF73AFDC0
:1014A00000BF0837BD4680BD80B582B000AF786010
:1014B0007868FFF7D4FDFFF72DFD00BF0837BD4664
:1014C00080BD80B582B000AF78600B46FB70FB78C2
:1014D00019467868FFF7F9FDFFF71CFD00BF0837D4
:1014E000BD4680BD80B584B000AFF860B9607A6059
:1014F000BB68002B06D07A68B968F868FFF720FE51
:10150000FFF708FD00BF1037BD4680BD80B584B031
:1015100000AFF860B9607A607A68B968F868FFF778
:1015200023FEFFF7F7FC00BF1037BD4680BD80B536
:1015300084B000AFF860B9601346FB80FB88A3F568
:1015400080739B08012202FA03F31A46BB6813401A
:10155000002B04D0FB881946F868FFF704FD00BF94
:101560001037BD4680BD80B584B000AFF860B9606B
:101570003B601346FB80FB88A3F580739B08012228
:1015800002FA03F31A46BB681340002B1DD0FB88F8
:101590001946F868FFF7FCFC0346002B15D0FB88C2
:1015A0001946F868FFF7DFFC3B68002B0BD03B685F
:1015B0001B68FA88A2F580729208012101FA02F2F2
:1015C0001A433B681A60012300E0002318461037D5
:1015D000BD4680BD80B586B000AFF860B9607A6066
:1015E00000233B61FFF79DFC07F110034FF480726D
:1015F000B968F868FFF7B7FF07F110034FF482727C
:10160000B968F868FFF7AFFF07F110034FF4847271
:10161000B968F868FFF7A7FF07F110034FF4887265
:10162000B968F868FFF79FFF07F110034FF48E7257
:10163000B968F868FFF797FF07F110034FF490724D
:10164000B968F868FFF78FFF07F110034FF4927243
:10165000B968F868FFF787FF07F110034FF4A2722B
:10166000B968F868FFF77FFF07F110034FF4A6721F
:10167000B968F868FFF777FF07F110034FF4A87215
:10168000B968F868FFF76FFF07F110034FF4AC7209
:10169000B968F868FFF767FFBB6803F01003002B19
:1016A0000AD1BB6803F40033002B05D0F868FFF7BC
:1016B0006FFD7861FFF73CFCFFF72CFC3B69184697
:1016C0001837BD4680BD000080B584B000AF78609B
:1016D0000023FB60786800F09CF80346002B02D0E2
:1016E000012B03D004E0054BFB6001E0044BFB60E1
:1016F000FB6818461037BD4680BD00BF00258450EA
:101700000028845080B586B000AF78600846114646
:101710001A460346FB700B46BB7013467B703B1D9D
:101720001846FFF7D1FF78617A687B69803253F8F9
:1017300022303B61114BFB60FB68DB433A6913408D
:101740003B61FA78BB785B001A437B789B001A43B5
:1017500097F820301B021A4397F824301B041343D8
:101760003A6913433B617A687B698032396943F88F
:10177000221000BF1837BD4680BD00BF0F0F030009
:1017800080B584B002AF78600023019300230093FA
:101790000023012201217868FFF7B4FF00BF08375A
:1017A000BD4680BD80B584B002AF78600B46FB704B
:1017B000FB7800220192002200920022002178682A
:1017C000FFF7A0FF00BF0837BD4680BD80B584B0DD
:1017D00000AF78603B1D1846FFF776FFF8607B6826
:1017E000012202FA03F31946F86800F004F800BF7A
:1017F0001037BD4680BD80B483B000AF78603960DB
:101800007B683A689A6000BF0C37BD465DF8047B80
:10181000704780B485B000AF78607B681B68FB6060
:10182000FB6803F01F027B681A60FB685B091846BF
:101830001437BD465DF8047B704780B582B000AFB9
:1018400078607868FFF79CFFFFF764FB00BF0837FC
:10185000BD4680BD80B582B000AF78600B46FB709E
:10186000FB7819467868FFF79DFFFFF753FB00BF31
:101870000837BD4680BD80B582B000AF786078681B
:10188000FFF7A4FFFFF746FB00BF0837BD4680BD4A
:1018900080B58AB000AF786039603B6893F820303B
:1018A00083F00103DBB2002B19D03B681B68B3F156
:1018B000FF3F09D03B681B681846FFF7DCFF3B6819
:1018C0001B681846FFF7B9FF3B685B68B3F1FF3F41
:1018D00005D03B685B6800211846FFF7BBFF3B68FB
:1018E0009B7E012B21D13B6893F8203083F00103CC
:1018F000DBB2002B19D03B68DB68B3F1FF3F05D0AA
:101900003B68DB6800211846FFF7A4FF3B689B6833
:10191000B3F1FF3F09D03B689B681846FFF7ABFF68
:101920003B689B681846FFF788FF07F10C0300220D
:101930001A605A609A60DA601A615A619A613B686B
:101940001B68FB603B685B683B613B689B687B6135
:101950003B68DB68BB613B685B69FB613B6893F894
:10196000213087F826303A6807F120031A321068D0
:10197000186092889A807B681B6807F10C021146F8
:101980001846FFF712FC786800F01EF87B681B7998
:1019900019460B4A0B46DB000B449B0013440433EF
:1019A0001B68002B07D07B6818683B681A7E0123F0
:1019B0000449FFF733FC00BF2837BD4680BD00BF98
:1019C000880000201003420080B586B000AF786028
:1019D0007B681B6803F26453FB607B681B6803F53C
:1019E000AD63BB60BB681B68012B05D17B681B68BE
:1019F0000C211846FFF765FDFB681B68012B26D1FB
:101A00007B681B681846FFF742FD7B681B68042152
:101A10001846FFF756FD0023FB7549F640433B612E
:101A2000FB681B68002B02D10123FB7505E03B69B5
:101A3000013B3B613B69002BF2D17B681B68184678
:101A4000FFF714FD7B681B681846FFF72DFD00BFEC
:101A50001837BD4680BD000080B586B000AFF86085
:101A6000B9607A60FB681B791A461346DB001344A1
:101A70009B00234A13447B61224B3B617B6993F8B3
:101A80002030002B03D0204B3B613B6934E07B6965
:101A90007A685A60BB68002B1BD0BB681A697B69E7
:101AA0001A60BB6893F820107A6992F8223061F3CB
:101AB000000382F82230BB6893F821107A6992F80B
:101AC000223061F3410382F82230B968F868FFF7E9
:101AD000DFFEFB681B681846FFF7D9FC7B69002214
:101AE0009A617B690022DA617B6900225A617B6915
:101AF000012283F820203B6918461837BD4680BD77
:101B0000880000200000AD0B0500AD0B80B588B04B
:101B100000AFF860B9607A603B60FB681B791A46D9
:101B20001346DB0013449B00314A1344BB61314B25
:101B3000FB61FB681B68B9681846FFF700FA0346AB
:101B400083F00103DBB2002B03D02B4BFB61FB695D
:101B50004AE0F86800F056F80346002B03D0274B04
:101B6000FB61FB6940E0BB697A685A61BB69BA688E
:101B70009A60FB681B684FF490711846FFF738FCB9
:101B8000FB681B684FF4AC711846FFF731FCFB682B
:101B90001868BB699968BB695B691A46FFF7A2FCC4
:101BA000FB681A68BB695B68002B0CBF012300232C
:101BB000DBB219461046FFF7D1FB7861BB695B6861
:101BC000002B10D17B6903F48003002B02D00C4B57
:101BD000FB6105E0FB681B6800211846FFF78DFBE1
:101BE000BB6900225A61FB6918462037BD4680BD9B
:101BF000880000200000AD0B0A00AD0B0B00AD0B00
:101C00000800AD0B80B483B000AF78607B681B79AF
:101C10001946094A0B46DB000B449B00134414335E
:101C20001B68002B14BF01230023DBB218460C37BE
:101C3000BD465DF8047B70478800002080B58AB0FF
:101C400000AFF860B9607A60FB681B791A461346EA
:101C5000DB0013449B00584A1344BB61574B7B6223
:101C6000FB681B68B9681846FFF769F9034683F0FB
:101C70000103DBB2002B03D0514B7B627B6A97E000
:101C8000002387F82330BB695B68002B06D0FB6814
:101C90001B684FF404711846FFF7D9FBBB699B69B9
:101CA000002B15D0BB69DB69002B0ED0BB695B68CC
:101CB000002B06D0FB681B684FF404711846FFF731
:101CC000B7FB404B7B627B6A72E0012387F82330CD
:101CD00097F8233083F00103DBB2002B09D0BB69F6
:101CE0007A689A61BB69BA68DA60BB690022DA6116
:101CF00005E0BB69BA681A61BB697A68DA61FB689A
:101D00001B684FF488711846FFF772FBFB681B686D
:101D10004FF4A2711846FFF76BFBFB681B687A68EB
:101D2000B9681846FFF7F2FB0023FB6197F82330F0
:101D3000002B06D0FB681B6820211846FFF769FBC3
:101D400014E0BB69DB683B61BB699B697B61FB6835
:101D50001A68BB695B68002B02D107F1100300E031
:101D6000002319461046FFF71FFBF861BB695B684B
:101D7000002B11D1BB6900229A61FB6903F4007347
:101D8000002B01D0104B7B62FB6903F40033002B66
:101D90000DD00E4B7B620AE0BB69002283F8212044
:101DA000FB681B684FF404711846FFF741FB7B6A20
:101DB00018462837BD4680BD880000200000AD0BC6
:101DC0000A00AD0B0B00AD0B0100AD0B0800AD0B15
:101DD00080B483B000AF7860044A7B68136000BFB2
:101DE0000C37BD465DF8047B704700BF10E000E093
:101DF00080B483B000AF7860044A7B68536000BF52
:101E00000C37BD465DF8047B704700BF10E000E072
:101E100080B500AF6FF07F40FFF7EAFF0520FFF7C6
:101E2000D7FF00BF80BD000090B5E9B002AF01F060
:101E300025F9BD4A07F5C0731268114619800233AF
:101E4000120C1A7007F5C0730321184601F048F808
:101E500007F18003184600F075F90123C7F89431A3
:101E60000123C7F888310023C7F890310023C7F851
:101E70008C3107F18003184600F0D2F93B46AB499C
:101E8000184601F000FD3B46184601F004FD0346EC
:101E9000DAB23B461146184601F022F807F1740306
:101EA0000A21184601F02EF807F17403A0491846DC
:101EB00001F05BFC024607F5CC73A3F59273002199
:101EC0009954D7F89431002B79D007F1680407F1C1
:101ED0006C0207F1700107F1740007F164030093CD
:101EE000234600F0ADFE0346002B00F0DF8007F52F
:101EF000CC73A3F59473196807F5CC73A3F59673A7
:101F00001A6807F5CC73A3F58C73C9000A4453F81B
:101F10002230C7F88431D7F884311B78184600F096
:101F200003FB0346002B39D007F5CC73A3F5987358
:101F30001A6807F5CC73A3F59A731B6807F1800044
:101F4000D7F8841100F0C0FD0346002B00F0AE80EE
:101F500007F5CC73A3F598731A6807F5CC73A3F54E
:101F60009A731B6807F18000D7F8841100F02AFEED
:101F7000C7F890013B466F49184601F084FC3B4688
:101F8000184601F088FC0346DAB23B461146184673
:101F900000F0A6FF0023C7F8943187E03B4666496E
:101FA000184601F070FC3B46184601F074FC0346ED
:101FB000DAB23B461146184600F092FF76E007F190
:101FC000680407F16C0207F1700107F1740007F172
:101FD00064030093234600F033FE0346002B65D0D4
:101FE00007F5CC73A3F59473196807F5CC73A3F5C3
:101FF00096731A6807F5CC73A3F58C73C9000A446D
:1020000053F82230C7F88431D7F884311B7818464A
:1020100000F08AFA0346002B38D107F5CC73A3F5FC
:1020200098731A6807F5CC73A3F59A731B6807F1C8
:102030008000D7F8841100F047FD0346002B35D00F
:1020400007F5CC73A3F598731A6807F5CC73A3F55D
:102050009A731B6807F18000D7F8841100F0B2FD75
:10206000C7F88C013B463349184601F00CFC3B464F
:10207000184601F010FC0346DAB23B4611461846FA
:1020800000F02EFF0123C7F894310FE03B462A49A8
:10209000184601F0F8FB3B46184601F0FCFB0346EE
:1020A000DAB23B461146184600F01AFF07F5C07336
:1020B0000321184600F014FFD7F89031002B04D10B
:1020C000D7F88C31002B3FF4D4AED7F89031002BE9
:1020D00010D03B461949184601F0D5FB3B4618463F
:1020E00001F0D9FB0346DAB23B461146184600F030
:1020F000F7FE13E0D7F88C31002B0FD03B46104988
:10210000184601F0C0FB3B46184601F0C4FB0346ED
:10211000DAB23B461146184600F0E2FE00231846AC
:1021200007F5CE77BD4690BD7404000000040000A2
:1021300020040000240400003804000054040000BF
:1021400064040000B0B598B000AF78600023FB6570
:1021500013E00023BB650AE07B68FA6DD100BA6D1D
:102160000A44002143F82210BB6D0133BB65BB6DEF
:10217000072BF1DDFB6D0133FB65FB6D072BE8DD04
:10218000264B07F108041D460FCD0FC40FCD0FC419
:102190000FCD0FC495E80F0084E80F0000237B6586
:1021A00033E000233B652AE07B6DDB006033DA1906
:1021B0003B6D1344583B1B7887F84F3097F84F30EE
:1021C000202B19D00C2001F0C5F80346BB64BB6C72
:1021D000002B1ED0BB6C97F84F201A70BB6C3A6D69
:1021E0005A60BB6C7A6D9A607B687A6DD1003A6DEB
:1021F0000A44B96C43F822103B6D01333B653B6DDB
:10220000072BD1DD7B6D01337B657B6D072BC8DD33
:1022100000E000BF6037BD46B0BD00BF78040000DD
:1022200080B5A0B000AF786007F10C03AA4918464A
:1022300001F029FB07F10C03184601F02CFB0246C4
:1022400007F10C031146184600F04AFE07F10C0393
:10225000A249184601F017FB07F10C03184601F0DC
:102260001AFB024607F10C031146184600F038FE2F
:1022700007F10C039A49184601F005FB07F10C031E
:10228000184601F008FB024607F10C0311461846F8
:1022900000F026FE0023FB6703E1FB6FC3F1080299
:1022A00007F10C038F49184601F0F4F907F10C030C
:1022B000184601F0F0FA024607F10C0311461846E1
:1022C00000F00EFE0023BB67D2E0FA6FBB6F134431
:1022D00003F00103002B06D107F10C0382491846D5
:1022E00001F0D1FA05E007F10C038049184601F02E
:1022F000CAFA07F10C03184601F0CDFA024607F1BD
:102300000C031146184600F0EBFD7B68FA6FD10014
:10231000BA6F0A4453F82230002B00F082807B68A9
:10232000FA6FD100BA6F0A4453F822301B7887F84D
:1023300073306F4B7B6797F87330184601F0CCF819
:102340000346623B102B37D801A252F823F000BF9E
:10235000A7230000B9230000B9230000B92300001F
:10236000B9230000B9230000B9230000B9230000FD
:10237000B9230000B3230000B9230000B9230000F3
:10238000A1230000B923000095230000AD23000025
:102390009B230000574B7B670EE0574B7B670BE09E
:1023A000564B7B6708E0564B7B6705E0554B7B67D8
:1023B00002E0554B7B6700BF97F87330184601F079
:1023C0007FF80346002B06D007F10C034F4918464F
:1023D00001F059FA05E007F10C034D49184601F0E8
:1023E00052FA07F10C03184601F055FA024607F1BC
:1023F0000C031146184600F073FD07F10C037A6FC9
:102400004449184601F046F907F10C03184601F05B
:1024100042FA024607F10C031146184600F060FD2F
:1024200011E007F10C033C49184601F02CFA07F1C2
:102430000C03184601F02FFA024607F10C0311466F
:10244000184600F04DFD07F10C033449184601F021
:102450001AFA07F10C03184601F01DFA024607F1BB
:102460000C031146184600F03BFDBB6F0133BB6700
:10247000BB6F072B7FF729AF07F10C0328491846DC
:1024800001F001FA07F10C03184601F004FA0246C4
:1024900007F10C031146184600F022FDFB6F0133D3
:1024A000FB67FB6F072B7FF7F8AE07F10C031D49A5
:1024B000184601F0E8F907F10C03184601F0EBF9B2
:1024C000024607F10C031146184600F009FD00BF53
:1024D0008037BD4680BD00BFB8040000D4040000B2
:1024E000EC040000040500000C05000014050000C9
:1024F0001C05000020050000240500002805000040
:102500002C050000300500003405000038050000EF
:1025100040050000480500004C0500005005000083
:10252000580500005C05000080B582B000AF03468E
:10253000FB71FB79184600F0C3FF034618460837C5
:10254000BD4680BD90B589B000AFF860B9607A60D3
:102550003B60BB681B781846FFF7E6FF0346002B7D
:1025600002D04FF0FF3300E00123FB61BB681B7812
:102570001846FFF7D9FF0346002B01D0062300E0E1
:102580000123BB61BB685B683A68D31A7B61BB6897
:102590009B687A68D31A3B617B69002B30D13A691A
:1025A000FB699A420AD1FB687A68D1003A680A440A
:1025B00053F82230002B01D101234BE0BB689B680C
:1025C000BA699A421CD1FB695B003A699A4217D1F9
:1025D000BB689A68FB69D118BB685A68FB68C90078
:1025E0000A4453F82230002B0AD1FB687A68D100E4
:1025F0003A680A4453F82230002B01D1012329E024
:10260000786900F091FE0346012B22D13A69FB69FB
:102610009A421ED1FB687A68D1003A680A4453F89E
:102620002230002B15D0BB681B781846FFF77CFFC3
:102630000446FB687A68D1003A680A4453F82230AD
:102640001B781846FFF770FF03469C4201D0012318
:1026500000E0002318462437BD4690BD90B58BB0EE
:1026600000AFF860B9607A603B60BB685B683A684D
:10267000D31AFB61BB689B687A68D31ABB61FB699C
:10268000002B04D0BB69002B01D0002367E0FB695D
:10269000002B04D1BB69002B01D100235FE0FB6953
:1026A000002B07D0FB69002B01DD012303E04FF075
:1026B000FF3300E000237B61BB69002B07D0BB69BF
:1026C000002B01DD012303E04FF0FF3300E0002386
:1026D0003B61BB685B687A6913447B62BB689B683B
:1026E0003A6913443B6212E0FB683A6AD1007A6AA5
:1026F0000A4453F82230002B01D000232FE07A6ADD
:102700007B6913447B623A6A3B6913443B627A6A91
:102710003B689A42E8D13A6A7B689A42E4D1FB6806
:102720007A68D1003A680A4453F82230002B13D05B
:10273000BB681B781846FFF7F7FE0446FB687A680B
:10274000D1003A680A4453F822301B781846FFF744
:10275000EBFE03469C4201D0012300E00023184613
:102760002C37BD4690BD90B587B000AFF860B9601A
:102770007A603B60BB685B683A68D31A7B61BB6870
:102780009B687A68D31A3B61786900F0CDFD0346F7
:10279000022B05D1386900F0C7FD0346012B0BD091
:1027A000786900F0C1FD0346012B24D1386900F09F
:1027B000BBFD0346022B1ED1FB687A68D1003A6844
:1027C0000A4453F82230002B13D0BB681B781846FC
:1027D000FFF7AAFE0446FB687A68D1003A680A440B
:1027E00053F822301B781846FFF79EFE03469C42A2
:1027F00001D0012300E0002318461C37BD4690BDE0
:1028000090B58BB000AFF860B9607A603B60BB6890
:102810005B683A68D31AFB61BB689B687A68D31A15
:10282000BB61F86900F080FD0446B86900F07CFDEA
:1028300003469C4201D0002367E0FB69002B04D1D2
:10284000BB69002B01D100235FE0FB69002B07D09F
:10285000FB69002B01DD012303E04FF0FF3300E0B3
:1028600000237B61BB69002B07D0BB69002B01DD16
:10287000012303E04FF0FF3300E000233B61BB681E
:102880005B687A6913447B62BB689B683A6913444E
:102890003B6212E0FB683A6AD1007A6A0A4453F854
:1028A0002230002B01D000232FE07A6A7B69134489
:1028B0007B623A6A3B6913443B627A6A3B689A429C
:1028C00003D03A6A7B689A42E4D1FB687A68D10007
:1028D0003A680A4453F82230002B13D0BB681B78A7
:1028E0001846FFF721FE0446FB687A68D1003A6873
:1028F0000A4453F822301B781846FFF715FE0346AA
:102900009C4201D0012300E0002318462C37BD462D
:1029100090BD90B58BB000AFF860B9607A603B6055
:10292000BB685B683A68D31AFB61BB689B687A68CE
:10293000D31ABB61FB69002B04D1BB69002B01D109
:10294000002371E0F86900F0EFFC0446B86900F07C
:10295000EBFC03469C4207D1FB69002B04D1BB6909
:10296000002B01D100235FE0FB69002B07D0FB693E
:10297000002B01DD012303E04FF0FF3300E00023D3
:102980007B61BB69002B07D0BB69002B01DD0123F4
:1029900003E04FF0FF3300E000233B61BB685B685E
:1029A0007A6913447B62BB689B683A6913443B6253
:1029B00012E0FB683A6AD1007A6A0A4453F822307E
:1029C000002B01D000232FE07A6A7B6913447B62DD
:1029D0003A6A3B6913443B627A6A3B689A42E8D19F
:1029E0003A6A7B689A42E4D1FB687A68D1003A6817
:1029F0000A4453F82230002B13D0BB681B781846CA
:102A0000FFF792FD0446FB687A68D1003A680A44F1
:102A100053F822301B781846FFF786FD03469C4288
:102A200001D0012300E0002318462C37BD4690BD9D
:102A300090B587B000AFF860B9607A603B60BB6862
:102A40005B683A68D31A7B61BB689B687A68D31A63
:102A50003B617B69002B04D13B69002B01D1002332
:102A60002DE0786900F060FC0346012B05DC386935
:102A700000F05AFC0346012B01DD00231FE0FB6838
:102A80007A68D1003A680A4453F82230002B13D0F8
:102A9000BB681B781846FFF747FD0446FB687A6859
:102AA000D1003A680A4453F822301B781846FFF7E1
:102AB0003BFD03469C4201D0012300E00023184661
:102AC0001C37BD4690BD000080B584B000AFF860F3
:102AD000B9607A603B60BB68002B01D100236CE0D9
:102AE0007B68002B08DB7B68072B05DC3B68002B31
:102AF00002DB3B68072B01DD00235EE0BB681B782F
:102B0000184600F0E9FC0346623B102B54D801A2A2
:102B100052F823F0892B0000B92B0000B92B0000DC
:102B2000B92B0000B92B0000B92B0000B92B000015
:102B3000B92B0000B92B0000A92B0000B92B000015
:102B4000B92B0000792B0000B92B0000592B000095
:102B5000992B0000692B00003B687A68B968F86817
:102B6000FFF7F0FC034628E03B687A68B968F8682C
:102B7000FFF774FD034620E03B687A68B968F8689F
:102B8000FFF7F1FD034618E03B687A68B968F8681A
:102B9000FFF736FE034610E03B687A68B968F868CC
:102BA000FFF7B7FE034608E03B687A68B968F86843
:102BB000FFF73EFF034600E0002318461037BD46EE
:102BC00080BD00BF80B584B000AFF860B9607A60A6
:102BD0003B60FB687A68D1003A680A4453F82230B7
:102BE000002B0ED0FB687A68D1003A680A4453F88B
:102BF00022301B786B2B04D1104800F039FD0123E3
:102C000018E0BB689968BB685A68FB68C9000A4449
:102C1000002143F82210BB683A685A60BB687A68A2
:102C20009A60FB687A68D1003A680A44B96843F848
:102C30002210002318461037BD4680BD74050000E1
:102C400080B584B000AFF860B9607A603B60F86826
:102C500000F021FE0346042B04D9FB6802331B78E5
:102C6000202B04D0244800F003FD002340E0FB6843
:102C70001B78A3F161027B681A60FB6803331B7841
:102C8000A3F16102BB691A60FB6801331B78C3F1D1
:102C90003802BB681A60FB6804331B78C3F1380242
:102CA0003B681A607B681B68002B1BDB7B681B681A
:102CB000072B17DCBB681B68002B13DBBB681B688A
:102CC000072B0FDCBB691B68002B0BDBBB691B6888
:102CD000072B07DC3B681B68002B03DB3B681B688A
:102CE000072B04DD054800F0C3FC002300E00123AE
:102CF00018461037BD4680BD7C050000AC050000BD
:102D000080B584B000AF78600023FB60786800F085
:102D1000D2F80346002B02D0012B03D004E0054B70
:102D2000FB6001E0044BFB60FB6818461037BD46B2
:102D300080BD00BF002584500028845080B586B037
:102D400000AF7860084611461A460346FB700B46F2
:102D5000BB7013467B703B1D1846FFF7D1FF7861AF
:102D60007A687B69803253F822303B61114BFB60FB
:102D7000FB68DB433A6913403B61FA78BB785B0040
:102D80001A437B789B001A4397F820301B021A43A2
:102D900097F824301B0413433A6913433B617A6864
:102DA0007B698032396943F8221000BF1837BD466D
:102DB00080BD00BF0F0F030080B584B002AF786004
:102DC000002301930023009300230122012178684E
:102DD000FFF7B4FF00BF0837BD4680BD80B584B0A3
:102DE00002AF78600B46FB70FB7800220192002254
:102DF0000092002200217868FFF7A0FF00BF08378B
:102E0000BD4680BD80B584B000AF78603B1D1846DC
:102E1000FFF776FFF8607B68012202FA03F3194698
:102E2000F86800F02CF800BF1037BD4680BD80B5B3
:102E300084B000AF78603B1D1846FFF761FFF86073
:102E40007B68012202FA03F31946F86800F025F8BE
:102E500000BF1037BD4680BD80B582B000AF78603E
:102E600039603B68002B03D17868FFF7E0FF02E090
:102E70007868FFF7C7FF00BF0837BD4680BD80B444
:102E800083B000AF786039607B683A689A6000BFB1
:102E90000C37BD465DF8047B704780B483B000AF4B
:102EA000786039607B683A68DA6000BF0C37BD46ED
:102EB0005DF8047B704780B485B000AF78607B68B4
:102EC0001B68FB60FB6803F01F027B681A60FB68ED
:102ED0005B0918461437BD465DF8047B7047000057
:102EE00080B582B000AF78600B46FB70FA780023A3
:102EF00079680348FEF70AFE00BF0837BD4680BD6B
:102F00000000002080B586B000AF786039607B6833
:102F1000002B02D03B68012B01D8002327E00023BF
:102F20007B6117E007F10F03012219461248FEF7F3
:102F300085FE38613B69114A934201D0002316E0B7
:102F4000FB7B0D2B0CD07B695A1C7A617A68134489
:102F5000FA7B1A703B68013B7A699A42E2D300E03F
:102F600000BF7A687B69134400221A700123184657
:102F70001837BD4680BD00BF000000200000AD0B2B
:102F800080B58AB000AF3B4624220021184600F0ED
:102F9000E4FB14233B6016237B604FF0FF33BB60E0
:102FA0004FF0FF33FB604FF0EB737B6107233B7601
:102FB0003B46002219460748FEF74EFD78627B6AC1
:102FC000054A934202D1054B01221A7000BF2837EF
:102FD000BD4680BD000000200000AD0BAC0000200D
:102FE00080B500AFFEF714FF1C20FFF7E5FE1D20A3
:102FF000FFF7E2FE1E20FFF7DFFE1F20FFF7DCFEDB
:1030000001211C20FFF728FF01211D20FFF724FFCD
:1030100001211E20FFF720FF01211F20FFF71CFFC9
:1030200003211720FFF7DAFE03211820FFF7D6FE51
:1030300003210820FFF7D2FE03210920FFF7CEFE6F
:1030400000BF80BD80B584B000AF0A4A3B1D92E846
:1030500003001860043319803B1D002219460648FE
:1030600000F0F6F8F860044800F046F900BF1037A9
:10307000BD4680BDDC0500000800002080B500AF23
:10308000FFF77EFFFFF7ACFFFFF7DCFF00BF80BD5F
:1030900080B483B000AF78607B681B6800BF0C37DA
:1030A000BD465DF8047B704780B400AF00BFBD46ED
:1030B0005DF8047B704780B483B000AF78603960FE
:1030C0007B683A68C3F8042300BF0C37BD465DF83F
:1030D000047B704780B582B000AF78600B467B8080
:1030E0007B887A68134400221A607B887A681344CC
:1030F0001846FFF7CDFF00BF0837BD4680BD80B43E
:1031000083B000AF786039607B683A68C3F80825FF
:1031100000BF0C37BD465DF8047B704780B483B0B8
:1031200000AF78600B46FB70FA787B6813441A4650
:103130000123136000BF0C37BD465DF8047B704768
:1031400080B483B000AF0346FB71FB799B0003F5AD
:10315000A0739BB218460C37BD465DF8047B7047E0
:1031600080B582B000AF786039603B681B68194653
:103170007868FFF7C4FFFFF797FF00BF0837BD4629
:1031800080BD80B586B000AFF860B96011461A46C0
:103190000B46FB711346BB714FF48072B968F86837
:1031A00000F03AF84FF48272B968F86800F034F829
:1031B00000237B610DE07B69DBB21846FFF7C0FF9F
:1031C00003461A46B968F86800F026F87B690133AF
:1031D0007B617B69032BEED9FFF766FFBB79002B80
:1031E00003D0B968F868FFF766FFFFF75DFF00BF1F
:1031F0001837BD4680BD80B582B000AF78600B4601
:10320000FB70FB7819467868FFF788FFFFF74CFFE3
:1032100000BF0837BD4680BD80B584B000AFF86000
:10322000B9601346FB80FB88A3F580739B080122DD
:1032300002FA03F31A46BB681340002B04D0FB8844
:103240001946F868FFF746FF00BF1037BD4680BD3E
:1032500080B586B000AFF860B9607A60FB685B79D2
:103260001946224A7B6842F83130FB685B791F4A75
:10327000DB0013441B79002B03D01D4B7B617B6962
:1032800030E0FB681868BB689A7800230021FFF7DC
:1032900078FFBB681B883B61FB681B6807F1100265
:1032A00011461846FFF75CFFFB685B791846BB6860
:1032B00019790E4AC30013440A465A71FB685B79B8
:1032C0001846BB68D978094AC30013440A469A7164
:1032D000FB685B79054ADB00134401221A71054B38
:1032E0007B617B6918461837BD4680BDB000002061
:1032F0000500AD0B0000AD0B80B582B000AF78606B
:103300007B681B6800211846FFF775FF7B685B79B7
:10331000044ADB00134402221A7100BF0837BD467D
:1033200080BD00BFB00000200028B8BF40427047F9
:1033300008B5064B044613B10021AFF30080044BDF
:103340001B6803B19847204601F090F90000000087
:10335000F8010020024B0146186800F025B800BFB4
:103360001C00002070B50F4E0C460546316811B99F
:1033700000F040FA30602146284600F03BFA431C3A
:1033800003D14FF0FF34204670BDC41C24F0030469
:10339000A042F8D0211A284600F02CFA0130F2D1D0
:1033A000EFE700BFB80000202DE9F843CD1C06462A
:1033B00025F0030508350C2D38BF0C25002D01DB49
:1033C000A94204D90C2333600020BDE8F883DFF85C
:1033D000D48000F069F8D8F800301C4644BB294678
:1033E0003046FFF7BFFF431C044658D1D8F80040D1
:1033F0002746002F43D1002C4BD023683946304656
:1034000004EB030900F0F6F9814542D1216830460A
:103410006D1A2946FFF7A6FF01303AD023682B44E6
:103420002360D8F800305A6862BBC8F800700FE01B
:103430002268521B20D40B2A17D96119A342256098
:1034400018BF5960636808BFC8F8001062514B602C
:10345000304600F02FF804F10B00231D20F0070088
:10346000C21A1CBF1B1AA350AFE76268A3420CBF6D
:10347000C8F800205A60EBE723466468AEE73C4694
:103480007F68B6E71A465B68A342FBD1002353600E
:10349000DEE70C233046336000F00CF894E705605B
:1034A000D6E700BFBC000020014800F0EAB900BF29
:1034B00000020020014800F0E5B900BF0002002032
:1034C000044B0344587800F00300431E584258410F
:1034D000704700BFF4050000034B1B5C03F00303BF
:1034E000012B08BF20307047F5050000002310B500
:1034F00004468360818119464366C2810822836144
:10350000C0E90033C0E904335C3000F026F90D4B0C
:10351000246263620C4BA3620C4BE3620C4B23638B
:103520000C4B9C4206D003F16802944202D0D03387
:103530009C4205D104F15800BDE8104000F0A0B94C
:1035400010BD00BFD5360000F73600002F37000051
:1035500053370000C0000020024A0349034800F02E
:1035600069B800BF10000020994200002000002030
:1035700041680C4B994210B5044601D000F08CFE16
:10358000A168094B994202D0204600F085FEE1680F
:10359000064B994204D02046BDE8104000F07CBEA6
:1035A00010BD00BFC00000202801002090010020B5
:1035B00010B50B4B04210B4C0B4A20461A6000221D
:1035C000FFF794FF04F1680001220921FFF78EFF45
:1035D00004F1D00002221221BDE81040FFF786BF9F
:1035E000F8010020C000002059350000014800F01B
:1035F00048B900BF01020020014800F043B900BFF4
:103600000102002010B50446FFF7F0FF236A1BB14A
:10361000BDE81040FFF7F0BF044B2362044B1B686A
:10362000002BF5D1FFF7C4FFF2E700BF71350000B2
:10363000F80100202DE9F843074688461446002685
:10364000D4E90195B9F1010905D52468002CF7D119
:103650003046BDE8F883AB89012B07D9B5F90E30A8
:10366000013303D029463846C04706436835E9E7A9
:103670000FB407B5064904AB086853F8042B8168FA
:10368000019300F0DDFA03B05DF804EB04B070477D
:103690001C0000200EB400B59CB06FF000411DABC3
:1036A00002900690079104910848094953F8042BA9
:1036B000059102A90068019300F09CF9029B002289
:1036C0001A701CB05DF804EB03B070471C000020BA
:1036D0000802FFFF10B50C46B1F90E1000F078F8A3
:1036E0000028ABBF636DA3891B1823F48053ACBFC4
:1036F0006365A38110BD2DE9F0411F468B89054606
:103700000C46DB05164605D502230022B1F90E1042
:1037100000F04CF8A3893246B4F90E10284623F481
:103720008053A3813B46BDE8F04100F073B810B56B
:103730000C46B1F90E1000F039F8431CA38915BFEF
:10374000606523F4805343F48053A38118BFA381A1
:1037500010BDB1F90E1000F019B8024403469342AF
:1037600000D1704703F8011BF9E7034670B51E4608
:1037700013F8014B44B14A1E01E0A54204D012F8EF
:10378000015F002DF9D1F2E7301A70BD38B5002382
:10379000054D044608462B6000F028FF431C02D16B
:1037A0002B6803B1236038BDFC01002038B5044606
:1037B000064D0846114600222A601A4600F02EFFE8
:1037C000431C02D12B6803B1236038BDFC010020EB
:1037D00038B50446064D0846114600222A601A46AE
:1037E00000F024FF431C02D12B6803B1236038BDD5
:1037F000FC01002038B50023054D044608462B6027
:1038000000F01CFF431C02D12B6803B1236038BDBC
:10381000FC01002038B50446064D0846114600223A
:103820002A601A4600F01AFF431C02D12B6803B12C
:10383000236038BDFC01002070B50D4D00260D4CF5
:10384000641BA410A64209D10B4D00260B4C00F0BE
:103850000FFF641BA410A64205D170BD55F8043BB0
:1038600001369847EEE755F8043B01369847F2E7F2
:103870007C4600007C4600007C460000804600003C
:10388000704770477047034611F8012B03F8012B6E
:10389000002AF9D17047034613F8012B002AFBD107
:1038A000181A01387047000038B50546002941D084
:1038B00051F8043C0C1F002BB8BFE418FFF7F4FDCF
:1038C0001D4A136833B9636014602846BDE8384068
:1038D000FFF7F0BDA34208D9206821188B4201BF31
:1038E00019685B6809182160EDE71A465B680BB13F
:1038F000A342FAD911685018A0420BD120680144A4
:10390000501811608342E0D118685B680844536026
:103910001060DAE702D90C232B60D6E72068211863
:103920008B4202BF19685B680918636008BF216099
:103930005460CAE738BD00BFBC0000202DE9F04745
:103940001F468E6882460C46BE4290460B682DD8B4
:10395000B1F90C2012F4906F26D06569096905EB66
:103960004505A3EB01097B1C05EBD5754B446D1098
:103970009D4238BF1D46530527D52946FFF714FD44
:10398000064660B34A46216900F06AFDA38923F424
:10399000906343F08003A38126614E446561A5EBEB
:1039A000090526603E46A560BE4200D93E46324625
:1039B0004146206800F02CFDA36800209B1BA360FB
:1039C000236833442360BDE8F0872A4600F055FDA4
:1039D00006460028E0D121695046FFF765FF0C2319
:1039E0004FF0FF30CAF80030A38943F04003A381B1
:1039F000E9E700002DE9F04F98468B899DB0074616
:103A00001B060D46144610D50B6973B94021FFF70C
:103A1000CBFC2860286130B90C233B604FF0FF30AD
:103A20001DB0BDE8F08F40236B610023CDF80C8002
:103A30004FF00109DFF8A081099320238DF8293088
:103A400030238DF82A3023469A4613F8012B0AB109
:103A5000252AF9D1BAEB040B0BD05B462246294646
:103A60003846FFF76BFF013000F0A780099A5A44EF
:103A700009929AF80030002B00F09F8000234FF04D
:103A8000FF320AF1010A049307938DF853301A9319
:103A9000CDE90523544605224F4814F8011B00F0D8
:103AA000D1FC049AD8B9D00644BF20238DF85330F6
:103AB000110744BF2B238DF853309AF800302A2B7E
:103AC00015D0079A544600204FF00A0C214611F8F1
:103AD000013B303B092B4BD9B0B1079214E0A0EB6E
:103AE0000803A24609FA03F313430493D2E7039BA6
:103AF000191D1B68002B0391BBBF5B4242F0020201
:103B000007930793B8BF049223782E2B0AD16378CA
:103B10002A2B32D1039B02341A1D1B6843EAE3733C
:103B200003920593DFF8C0A003222178504600F0ED
:103B300089FC38B1A0EB0A004022049B013482408A
:103B40001343049314F8011B062224488DF828100F
:103B500000F078FC002836D0214B1BBB039B0733B9
:103B600023F0070308330393099B334409936AE75F
:103B70000CFB02320C460120A8E7002301344FF071
:103B80000A0C19460593204610F8012B303A092AF1
:103B900003D9002BC6D00591C4E70CFB01210446D4
:103BA0000123F0E703AB2A4604A9384600930D4BE6
:103BB000AFF30080421C0646D6D1AB895B063FF5C9
:103BC0002DAF09982CE703AB2A4604A93846009389
:103BD000044B00F0BFF9EDE7F5060000FF0600001A
:103BE000000000003D390000FB0600009368013B27
:103BF000002B936010B408DA9469A34201DB0A2910
:103C000003D15DF8044B00F06FBB1368581C1060C3
:103C1000084619705DF8044B7047F8B506460F4624
:103C20001446D518AC4201D1002007E03A4614F8FA
:103C3000011B3046FFF7DAFF431CF3D1F8BD00004B
:103C40002DE9F04F0D469DB014469846064618B132
:103C5000036A0BB9FFF7D6FC6B6ED90705D4AB89A5
:103C60009A0502D4A86DFFF70CFEAB891B0701D59E
:103C70002B699BB92946304600F074FB70B16B6E1E
:103C8000DC0704D54FF0FF301DB0BDE8F08FAB89E5
:103C90009805F7D4A86DFFF7F5FDF3E70023CDF8FD
:103CA0000C804FF00109DFF8B481099320238DF8CF
:103CB000293030238DF82A3023469A4613F8012BF9
:103CC0000AB1252AF9D1BAEB040B0BD05B46224688
:103CD00029463046FFF7A1FF013000F0A780099A7E
:103CE0005A4409929AF80030002B00F09F8000237C
:103CF0004FF0FF320AF1010A049307938DF8533015
:103D00001A93CDE9052354460522544814F8011BA3
:103D100000F098FB049AD8B9D10644BF20238DF84F
:103D20005330130744BF2B238DF853309AF80030DB
:103D30002A2B15D0079A544600204FF00A0C214632
:103D400011F8013B303B092B4BD9B0B1079214E07D
:103D5000A0EB0803A24609FA03F313430493D2E746
:103D6000039B191D1B68002B0391BBBF5B4242F0F4
:103D7000020207930793B8BF049223782E2B0AD12F
:103D800063782A2B32D1039B02341A1D1B6843EA45
:103D9000E37303920593DFF8D4A003222178504601
:103DA00000F050FB38B1A0EB0A004022049B013424
:103DB00082401343049314F8011B062228488DF80F
:103DC000281000F03FFB00283FD0264B1BBB039B75
:103DD000073323F0070308330393099B3B440993FC
:103DE0006AE70CFB02320C460120A8E700230134ED
:103DF0004FF00A0C19460593204610F8012B303A73
:103E0000092A03D9002BC6D00591C4E70CFB012178
:103E100004460123F0E703AB2A4604A93046009389
:103E2000114BAFF300800746781CD6D16B6ED907D3
:103E300005D4AB899A0502D4A86DFFF723FDAB89A1
:103E40005B063FF51FAF09981EE703AB2A4604A99E
:103E500030460093044B00F07DF8E4E7F5060000DF
:103E6000FF060000000000001B3C0000FB060000F5
:103E70002DE9F047164698468A6807460B690C46B6
:103E8000DDF820909342B8BF1346336091F8432089
:103E90000AB1013333602368990642BF33680233A5
:103EA0003360256815F0060506D104F1190AE368A8
:103EB00032689B1AAB422BDC94F843302268003BFB
:103EC00018BF0123920630D404F14302414638461C
:103ED000C847013023D023681A3454F80A2C03F061
:103EE0000603042B0ABF54F80E5C002533684FF01C
:103EF000000608BFED1A54F8123C08BF25EAE57524
:103F00009342C4BF9B1AED18B5421AD1002008E0B5
:103F10000123524641463846C847013003D14FF08D
:103F2000FF30BDE8F0870135C1E7E1185A1C3020A9
:103F30000233224481F8430094F8451082F843107C
:103F4000C2E70123224641463846C8470130E6D041
:103F50000136D9E72DE9FF470F7E914680460C4692
:103F6000782F9A460C9E01F1430207D8622F0AD897
:103F7000002F00F0D180582F00F0B88004F14206E5
:103F800084F842703AE0A7F16303152BF6D801A13B
:103F900051F823F0ED3F0000014000007D3F00009C
:103FA0007D3F00007D3F00007D3F0000014000009C
:103FB0007D3F00007D3F00007D3F00007D3F000011
:103FC000FF4000002B400000B94000007D3F000092
:103FD0007D3F0000214100007D3F00002B4000009C
:103FE0007D3F00007D3F0000C140000033681A1D86
:103FF0001B68326004F1420684F8423001239CE0E1
:1040000033682068191D3160060601D51D6803E07C
:104010004506FBD5B3F90050002D03DA2D236D4280
:1040200084F8433058480A2311E0216833680806B1
:1040300053F8045B02D4490648BFADB26F2F33601A
:10404000514814BF0A230823002184F843106668EE
:10405000002EA66005DB21682E4321F004012160BB
:104060004BD01646B5FBF3F103FB1157C75D06F8BD
:10407000017D2F460D46BB42F4D9082B0BD1236896
:10408000DF0708D5236961689942DEBF302306F84F
:10409000013C06F1FF36921B22614B4603AA2146E2
:1040A0004046CDF800A0FFF7E3FE01304AD14FF0C3
:1040B000FF3004B0BDE8F087236843F0200323609D
:1040C00078273248236884F845701F06316851F814
:1040D000045B02D45F0648BFADB23160D90744BF6C
:1040E00043F0200323601DB11023ADE72648E9E724
:1040F000236823F020032360F6E71646BDE7336804
:104100002568181D616930602E061B6801D519608D
:1041100002E06806FBD51980002316462361BCE740
:10412000336800211A1D32601E686268304600F054
:1041300089F908B1801B606063682361002384F8FB
:104140004330AAE72369324649464046D04701300A
:10415000ADD023689B0713D4E068039B9842B8BF97
:104160001846A6E70123324649464046D04701306B
:104170009DD00135E36803995B1AAB42F2DCEBE7B3
:10418000002504F11906F5E70607000017070000EF
:10419000B1F90C202DE9F041160705460C4654D420
:1041A0004B68002B02DC0B6C002B48DDE66A002E0E
:1041B00045D0002312F480522F68216A2B6030D042
:1041C000626DA389590705D56368D21A636B0BB179
:1041D000236CD21A0023E66A216A2846B047431CA2
:1041E000A38906D129681D292BD82A4ACA40D60797
:1041F00027D50022D90462602269226004D5421CBE
:1042000001D12B6803B96065616B2F60B9B104F10E
:104210004403994202D02846FFF746FB002363631C
:104220000DE001232846B0470246501CC9D12B6837
:10423000002BC6D01D2B01D0162B1DD12F600020C6
:1042400021E043F040031BB21AE00F69002FF6D0C3
:1042500093070E680F600CBF4B690023A6EB07089D
:104260008B60B8F1000FEADD43463A46216A2846E2
:10427000A66AB047002808DCB4F90C3043F04003CC
:104280004FF0FF30A381BDE8F0810744A8EB0008A0
:10429000E7E700BF0100402038B50B6905460C4632
:1042A00013B90025284638BD18B1036A0BB9FFF7CA
:1042B000A9F9B4F90C30002BF3D0626ED00704D406
:1042C000990502D4A06DFFF7DCFA28462146FFF7D6
:1042D0005FFF636E0546DA07E4D4A3899B05E1D44A
:1042E000A06DFFF7CFFADDE7F8B50E461446054698
:1042F00018B1036A0BB9FFF785F9A369A360A38915
:104300001A0701D5236943B92146284600F02AF847
:1043100018B14FF0FF373846F8BD2368F6B222696E
:104320003746981A6369834205DC21462846FFF721
:10433000B3FF0028EDD1A368013BA36023685A1C9A
:1043400022601E70431C62699A4204D0A389DB0775
:10435000E1D50A2EDFD121462846FFF79DFF002830
:10436000D9D0D6E738B5294B05460C46186818B1A0
:10437000036A0BB9FFF746F9B4F90C30190722D4D8
:10438000DA0607D409222A6043F040034FF0FF30D9
:10439000A38133E0580712D5616B41B104F14403A6
:1043A000994202D02846FFF77FFA00236363A3896E
:1043B00023F02403A3810023636023692360A3897E
:1043C00043F00803A38123694BB9A38903F4207345
:1043D000B3F5007F03D02146284600F0A1F8B4F9D8
:1043E0000C3013F001020AD00022A260626952422E
:1043F000A261226942B913F08000C5D138BD990786
:1044000058BF6269A260F4E70020F7E71C000020B3
:10441000884210B501EB020402D98442234607D832
:10442000431EA14208D011F8012B03F8012FF8E731
:10443000024401468A4200D110BD13F8014D02F832
:10444000014DF7E7C9B20346024410B5934218463E
:1044500001D1002003E0047801338C42F6D110BD75
:104460000A44431E914200D1704710B511F8014B28
:10447000914203F8014FF9D110BD2DE9F0410746F3
:1044800014460D4621B91146BDE8F041FEF78CBF38
:104490002AB92546FFF708FA2846BDE8F08100F062
:1044A0009DF88442064602D8B4EB500FF4D821465A
:1044B0003846FEF779FF804608B94546ECE7B44236
:1044C0002246294628BF3246FFF7CAFF294638460A
:1044D000FFF7EAF9F1E770B50C46B1F90E1096B0A6
:1044E000154600291E460CDAA389002113F0800F1F
:1044F00014BF40234FF48063002031602B6016B05E
:1045000070BD6A4600F048F80028EDDB019901F41F
:104510007041A1F50053594259414FF48063EBE7D4
:104520008B89F7B59D0706460C4607D504F147036E
:10453000236023610123636103B0F0BD01AB6A46D0
:10454000FFF7C9FF009F054630463946FEF72CFFAE
:1045500048B9B4F90C309A05EED423F0030343F0C4
:104560000203A381E2E7A389206043F08003A381D3
:10457000019BC4E904075BB1B4F90E10304600F0AA
:104580001DF828B1A38923F0030343F00103A3819D
:10459000A3891D43A581CFE738B50023064D044606
:1045A000084611462B6000F029F8431C02D12B6805
:1045B00003B1236038BD00BFFC01002038B50023E3
:1045C000054D044608462B6000F020F8431C02D13C
:1045D0002B6803B1236038BDFC01002051F8043C76
:1045E000181F002BBCBF0B58C0187047024B582235
:1045F0004FF0FF301A607047FC010020024B582238
:104600004FF0FF301A607047FC010020024B582227
:1046100000201A60704700BFFC010020024B5822A6
:104620004FF0FF301A607047FC010020024B582207
:104630004FF0FF301A607047FC010020054A034626
:10464000106810B1034413607047034803441360BB
:10465000704700BF0402002008020020024B5822CD
:104660004FF0FF301A607047FC010020FEE700BFEA
:10467000F8B500BFF8BC08BC9E4670479D07000017
:10468000F8B500BFF8BC08BC9E467047750700002F
:104690001000000000000000017A5200027C0E01B0
:1046A0001B0C0D001000000018000000EAF1FFFFD5
:0C46B000100000000000000000000000EE
:1046BC0004470000000000201B00000070470000B1
:1046CC006C00002000000000704700006C0000200F
:1046DC0000000000704700006C000020000000008B
:1046EC006C000020670000000802002000000000A1
:0846FC0008020020000000008C
:10470400008000500000000000400150140004002C
:104714000000000003000000C00000202000002072
:1047240000000000C00000202801002090010020AB
:104734000000000000000000000000000000000075
:104744000000000000000000000000000000000065
:104754000000000000000000000000000000000055
:0C47640000000000000000000000000049
:040000030000083DB4
:00000001FF
