:1000000000000420990D0000090E00000B0E0000F6
:100010000D0E00000F0E0000110E0000130E000068
:10002000000000000000000000000000150E0000AD
:10003000170E000000000000190E00001B0E00004B
:100040001D0E00001D0E0000000000001D0E00002F
:10005000000000001D0E0000000000000000000075
:100060001D0E00001D0E00001D0E00001D0E0000E4
:100070001D0E00001D0E00001D0E00001D0E0000D4
:100080001D0E00001D0E000000000000000000001A
:100090001D0E00001D0E000000000000000000000A
:1000A0001D0E00001D0E00001D0E00001D0E0000A4
:1000B0001D0E00001D0E00001D0E00001D0E000094
:1000C0001D0E00001D0E00001D0E00001D0E000084
:1000D0001D0E0000000000001D0E000000000000CA
:1000E0001D0E0000000000001D0E00001D0E00008F
:1000F000000000001D0E0000000000001D0E0000AA
:100100000000000000000000000000001D0E0000C4
:100110001D0E0000000000001D0E00001D0E00005E
:10012000000000001D0E00000000000000000000A4
:1001300000000000000000000000000000000000BF
:1001400000000000000000000000000000000000AF
:100150001D0E000000000000000000000000000074
:10016000000000000000000000000000000000008F
:10017000000000000000000000000000000000007F
:10018000000000000000000000000000000000006F
:10019000000000000000000000000000000000005F
:1004000043686F6963653A200000000053697A65AC
:10041000206F66204C6973743A2000005468652090
:100420004C697374206973206E6F7420656D7074ED
:10043000792C20636C656172207468656D20666933
:1004400072737420746F20706F70756C61746520A6
:10045000616761696E2E2E2E0000000053697A6577
:10046000206F662041727261793A200054686520DD
:100470004172726179206973206E6F7420656D70AE
:1004800074792C20636C656172207468656D2066D8
:100490006972737420746F20706F70756C6174650D
:1004A00020616761696E2E2E2E0000005468652061
:1004B0004C6973742077617320636C656172656445
:1004C0002E2E2E00546865204C69737420697320A9
:1004D000656D7074792E2E2E000000005468652022
:1004E00041727261792077617320636C6561726516
:1004F000642E2E2E000000004C6973743A200A0D01
:100500000000000041727261793A200A0D0000007B
:1005100054686520417272617920697320656D703D
:1005200074792E2E2E000000546865204C69737477
:1005300020697320736F727465642E00546865209F
:100540004C697374206973206E6F7420736F7274BA
:1005500065642E0054686520417272617920697368
:1005600020736F727465642E00000000546865206B
:100570004172726179206973206E6F7420736F729B
:100580007465642E0000000052756E6E696E6720FF
:10059000427562626C6520536F7274206F6E204CDE
:1005A0006973742E2E2E00000A0A0D54696D6520A1
:1005B000746F20427562626C6520736F72743A20AA
:1005C0000000000052756E6E696E6720436F636BAA
:1005D0007461696C20536F7274206F6E204C697364
:1005E000742E2E2E0000000052756E6E696E67200C
:1005F000517569636B20536F7274206F6E20417266
:100600007261792E2E2E00000A0A0D54696D652044
:10061000746F20517569636B20736F72743A200098
:1006200052756E6E696E67204D6572676520536FF7
:100630007274206F6E2041727261792E2E2E00002E
:1006400052756E6E696E6720496E73657274696F5C
:100650006E20536F7274206F6E2041727261792E1A
:100660002E2E00000A0A0D54696D6520746F204912
:100670006E73657274696F6E20736F72743A2000C6
:1006800052756E6E696E672053656C656374696F31
:100690006E20536F7274206F6E2041727261792EDA
:1006A0002E2E00000A0A0D54696D6520746F2053C8
:1006B000656C656374696F6E20736F72743A2000A5
:1006C000496E76616C69642063686F6963652C208C
:1006D000706C656173652073656C65637420312D82
:1006E00031342E000D0A0A507265737320616E79E1
:1006F000206B657920746F20636F6E74696E756509
:100700002E2E2E0A0D0000000A0A50726573732007
:10071000616E79206B657920746F20636F6E7469E8
:100720006E75652E2E2E0A0D000000001B63000062
:100730003D3D3D3D3D3D3D3D3D3D3D3D204D454EDD
:1007400055203D3D3D3D3D3D3D3D3D3D3D3D0A0D41
:100750000000000000000000000000000000000099
:100760000000312E20506F70756C617465204C69EB
:10077000737420776974682072616E646F6D206491
:100780006174610A0D00000000000000000000001C
:1007900000000000322E20506F70756C617465206F
:1007A000417272617920776974682072616E646F3A
:1007B0006D20646174610A0D0000000000000000FB
:1007C000000000000000332E20436C656172204C55
:1007D0006973740A0D0000000000000000000000B2
:1007E0000000000000000000000000000000000009
:1007F0000000000000000000342E20436C65617290
:100800002041727261790A0D0000000000000000B2
:1008100000000000000000000000000000000000D8
:1008200000000000000000000000352E205072691A
:100830006E74204C6973740A0D0000000000000003
:1008400000000000000000000000000000000000A8
:10085000000000000000000000000000362E2050C4
:1008600072696E742041727261790A0D0000000095
:100870000000000000000000000000000000000078
:100880000000000000000000000000000000372E03
:10089000204973204C69737420536F727465643FF0
:1008A0000A0D000000000000000000000000000031
:1008B0000000000000000000000000000000000038
:1008C000382E20497320417272617920536F7274FF
:1008D00065643F0A0D0000000000000000000000F9
:1008E0000000000000000000000000000000000008
:1008F0000000392E20427562626C6520536F72745D
:10090000204C6973740A0D00000000000000000014
:1009100000000000000000000000000000000000D7
:100920000000000031302E20436F636B7461696CEE
:1009300020536F7274204C6973740A0D000000001C
:1009400000000000000000000000000000000000A7
:1009500000000000000031312E20517569636B20CA
:10096000536F72742041727261790A0D00000000A9
:100970000000000000000000000000000000000077
:10098000000000000000000031322E204D6572672B
:100990006520536F72742041727261790A0D0000F4
:1009A0000000000000000000000000000000000047
:1009B0000000000000000000000031332E20496ECE
:1009C00073657274696F6E20536F72742041727216
:1009D00061790A0D00000000000000000000000026
:1009E00000000000000000000000000031342E2054
:1009F00053656C656374696F6E20536F7274204128
:100A0000727261790A0D0000000000000000000011
:100A100000000000000000000000000000003D3D5C
:100A20003D3D3D3D3D3D3D3D3D3D3D3D3D3D3D3DF6
:100A30003D3D3D3D3D3D3D3D3D3D3D3D0A0D0000C3
:100A400000000000000000000000000000000000A6
:100A50002A6C69737420213D204E554C4C000000D7
:100A60006C6973742E6300002E2000000A0D0000D4
:100A70006C69737420213D204E554C4C00000000E1
:100A8000256400000000074100000000170000007E
:100A90001800000008000000090000002E200000DF
:100AA0000A0D002C2066756E6374696F6E3A200023
:100AB000617373657274696F6E20222573222066DC
:100AC00061696C65643A2066696C65202225732231
:100AD0002C206C696E65202564257325730A0052ED
:100AE00045454E54206D616C6C6F63207375636374
:100AF0006565646564002F646174612F6A656E6B5F
:100B0000696E732F776F726B73706163652F474ED9
:100B1000552D746F6F6C636861696E2F61726D2DF6
:100B200031332F7372632F6E65776C69622D637931
:100B30006777696E2F6E65776C69622F6C69626387
:100B40002F7374646C69622F72616E642E6300236C
:100B50002D302B2000686C4C0065666745464700C9
:100B600030313233343536373839414243444546E3
:100B70000030313233343536373839616263646579
:100B8000660000202020202020202020282828283F
:100B9000282020202020202020202020202020204D
:100BA000202020881010101010101010101010109D
:100BB00010101004040404040404040404101010AD
:100BC0001010101041414141414101010101010159
:100BD00001010101010101010101010101011010E7
:100BE000101010104242424242420202020202022D
:100BF00002020202020202020202020202021010B9
:100C000010102000000000000000000000000000A4
:100C100000000000000000000000000000000000D4
:100C200000000000000000000000000000000000C4
:100C300000000000000000000000000000000000B4
:100C400000000000000000000000000000000000A4
:100C50000000000000000000000000000000000094
:100C60000000000000000000000000000000000084
:100C70000000000000000000000000000000000074
:030C800000000071
:080C84009800000001000000CF
:100C8C000348044B834202D0034B03B1184770470F
:100C9C00700000207000002000000000064B074987
:100CAC00C91A891048BF0131491003D0044B0BB14C
:100CBC0001481847704700BF7000002070000020EA
:100CCC000000000010B5064C237843B9FFF7D8FF9D
:100CDC00044B13B10448AFF300800123237010BD03
:100CEC0070000020000000003053000008B5054BD8
:100CFC001BB105490548AFF30080BDE80840FFF77C
:100D0C00CDBF00BF00000000740000203053000075
:100D1C00A3F5803A704700BF174B002B08BF134B4D
:100D2C009D46FFF7F5FF00218B460F461348144AEA
:100D3C00121A03F00AFB0E4B002B00D098470D4BF8
:100D4C00002B00D098470020002104000D000D4816
:100D5C00002802D00C48AFF3008003F05BFB2000AE
:100D6C00290001F021FB02F0E7FF00BF00000800A2
:100D7C0000000000000000000000042070000020B3
:100D8C000C02002000000000000000000F49104A77
:100D9C00104B00F010F81049104A114B00F00BF8F2
:100DAC001049114A114B00F006F81149114A124B27
:100DBC0000F001F806E0521A03DD043A9858885006
:100DCC00FBDC704700F0FEF9FFF7A6FF00000020E7
:100DDC0070000020A4530000700000207000002060
:100DEC001454000070000020700000201454000007
:100DFC00700000207000002014540000FEE7FEE795
:100E0C00FEE7FEE7FEE7FEE7FEE7FEE7FEE7FEE7AE
:100E1C00FEE700BF80B483B000AF154B1B687B604E
:100E2C00144B1B683B607B68072B19D13B68023B5A
:100E3C00032B13D801A252F823F000BF590E000067
:100E4C005D0E0000610E0000650E0000012308E03D
:100E5C00002306E0002304E0002302E0002300E06E
:100E6C00002318460C37BD465DF8047B704700BF65
:100E7C003001FF003401FF0080B483B000AF154B8C
:100E8C001B687B60144B1B683B607B68072B19D17C
:100E9C003B68023B032B13D801A252F823F000BF8E
:100EAC00BD0E0000C10E0000C50E0000C90E0000F2
:100EBC00012308E0012306E0002304E0002302E004
:100ECC00002300E0002318460C37BD465DF8047B78
:100EDC00704700BF3001FF003401FF0080B483B0C5
:100EEC0000AF154B1B687B60144B1B683B607B6829
:100EFC00072B19D13B68023B032B13D801A252F8E4
:100F0C0023F000BF210F0000250F0000290F000067
:100F1C002D0F0000012308E0002306E0002304E06D
:100F2C00002302E0002300E0002318460C37BD46E6
:100F3C005DF8047B704700BF3001FF003401FF00F7
:100F4C0080B483B000AF154B1B687B60144B1B68DF
:100F5C003B607B68072B19D13B68023B032B13D8F2
:100F6C0001A252F823F000BF850F0000890F00008A
:100F7C008D0F0000910F0000012308E0012306E013
:100F8C00012304E0012302E0012300E000231846C2
:100F9C000C37BD465DF8047B704700BF3001FF0085
:100FAC003401FF0080B483B000AF154B1B687B602D
:100FBC00144B1B683B607B68072B19D13B68023BC9
:100FCC00032B13D801A252F823F000BFE90F000045
:100FDC00ED0F0000F10F0000F50F0000012308E0F9
:100FEC00002306E0002304E0002302E0002300E0DD
:100FFC00002318460C37BD465DF8047B704700BFD4
:10100C003001FF003401FF0080B483B000AF154BFA
:10101C001B687B60144B1B683B607B68072B19D1EA
:10102C003B68023B032B13D801A252F823F000BFFC
:10103C004D10000051100000551000005910000018
:10104C00012308E0002306E0002304E0002302E073
:10105C00002300E0002318460C37BD465DF8047BE6
:10106C00704700BF3001FF003401FF0080B483B033
:10107C0000AF154B1B687B60144B1B683B607B6897
:10108C00072B19D13B68023B032B13D801A252F852
:10109C0023F000BFB1100000B5100000B910000023
:1010AC00BD100000012308E0002306E0002304E04B
:1010BC00002302E0002300E0002318460C37BD4655
:1010CC005DF8047B704700BF3001FF003401FF0066
:1010DC0080B483B000AF154B1B687B60144B1B684E
:1010EC003B607B68072B19D13B68023B032B13D861
:1010FC0001A252F823F000BF1511000019110000D5
:10110C001D11000021110000012308E0012306E05D
:10111C00012304E0012302E0012300E00023184630
:10112C000C37BD465DF8047B704700BF3001FF00F3
:10113C003401FF0080B483B000AF154B1B687B609B
:10114C00144B1B683B607B68072B19D13B68023B37
:10115C00032B13D801A252F823F000BF7911000021
:10116C007D1100008111000085110000002308E0B2
:10117C00002306E0002304E0012302E0012300E049
:10118C00002318460C37BD465DF8047B704700BF42
:10119C003001FF003401FF0080B400AF074B084A58
:1011AC001B68C2F84435054B054ADB69C2F84C355F
:1011BC0000BFBD465DF8047B704700BF0080FF0098
:1011CC000060005080B582B000AFFFF74FFF0346C0
:1011DC00002B0CD0734B1B68002B08D1714B0D22CC
:1011EC001A60714B01221A606F4B00221A600023A7
:1011FC007B6000237B6011E04FF47F024FF47F0192
:10120C007B68603351F8333019467B686033DB0000
:10121C0013445B680B607B6801337B607B681F2B1E
:10122C0008D84FF47F027B68603352F83330B3F147
:10123C00FF3FE1D1FFF7B6FE0346002B05D05B4B19
:10124C0029221A605A4B03221A60FFF7E3FD03466A
:10125C00002B07D0574B584A1A604FF050230122ED
:10126C00C3F85825FFF708FE0346002B02D0534B5A
:10127C0000221A60FFF732FE0346002B11D04FF00C
:10128C005023D3F8003403F00103002B09D04FF0A6
:10129C0050230022C3F814214FF050230022C3F82E
:1012AC001821FFF74DFE0346002B0DD04FF05023B5
:1012BC00D3F8003403F00103002B05D04FF050237A
:1012CC006FF00102C3F80024FFF79EFE0346002BCB
:1012DC0002D0364B65221A60FFF7FAFE0346002B4C
:1012EC0021D0374B1B68002B1DDA4FF05023032203
:1012FC00C3F818254FF0502301229A6000BF4FF01D
:10130C005023D3F80431002BF9D04FF05023002296
:10131C00C3F804214FF050230122DA604FF0502320
:10132C000122C3F81825FFF705FF0346002B1AD03E
:10133C001E4B7E221A60234B7E221A60224B7F2288
:10134C001A60224B00221A60214B00221A60214B9A
:10135C0000221A60204B00221A60204B00221A60D7
:10136C001F4B00221A6000F03FF81E4BD3F88C3054
:10137C001C4A43F44063C2F88C30FFF70DFF194B45
:10138C00D3F88830174A43F47003C2F88830BFF39F
:10139C004F8F00BFBFF36F8F00BF00BF0837BD4634
:1013AC0080BD00BF204A00501C4900500C47005023
:1013BC003C470050309503504400EFBE4C25035081
:1013CC00202403503C49005018210050049E035027
:1013DC00089E035010111050242100502C21005055
:1013EC00A012205000ED00E080B485B000AF144B8B
:1013FC00FB60144BBB604FF47F037B6007E0FA6823
:10140C00131FFB60BB68191FB96012681A60FA6879
:10141C007B689A42F3D23F233B600B4A3B6803F54F
:10142C00E07352F82330084923F010023B6803F5AF
:10143C00E07341F823201437BD465DF8047B7047F8
:10144C00FC0FFF00FCFF07200030005080B483B07D
:10145C0000AF78607B681B6800BF0C37BD465DF839
:10146C00047B704780B400AF00BFBD465DF8047BC1
:10147C00704780B400AF00BFBD465DF8047B704779
:10148C0080B400AF00BFBD465DF8047B704780B4EC
:10149C0083B000AF786039603B6803F06043B3F110
:1014AC00005F0CBF01230023DBB218460C37BD468E
:1014BC005DF8047B704780B582B000AF78600B4656
:1014CC007B807B887A68134400221A607B887A6858
:1014DC0013441846FFF7BAFF00BF0837BD4680BD5E
:1014EC0080B483B000AF78600B467B807B887A68D1
:1014FC0013441B68002B14BF01230023DBB21846D6
:10150C000C37BD465DF8047B704780B483B000AFE8
:10151C00786039607B68D3F800223B681A437B689B
:10152C00C3F8002200BF0C37BD465DF8047B704742
:10153C0080B483B000AF786039607B683A68C3F8D8
:10154C00042300BF0C37BD465DF8047B704780B4A4
:10155C0083B000AF786039607B683A68C3F80823C1
:10156C0000BF0C37BD465DF8047B704780B485B076
:10157C0000AF78607B68D3F88034FB607B68FA68D6
:10158C00C3F88024FB6818461437BD465DF8047B0D
:10159C00704780B483B000AF78607B680822C3F8D2
:1015AC00002500BF0C37BD465DF8047B704780B446
:1015BC0083B000AF78607B680022C3F8002500BFC1
:1015CC000C37BD465DF8047B704780B485B000AF26
:1015DC00F860B9607A60FB68BA68C3F80C25FB68E0
:1015EC007A68C3F8142500BF1437BD465DF8047B38
:1015FC00704780B485B000AFF860B9607A60FB6862
:10160C00BA68C3F80825FB687A68C3F8102500BFD0
:10161C001437BD465DF8047B704780B483B000AFCF
:10162C0078600B46FB70FB787A68134401221A60D1
:10163C0000BF0C37BD465DF8047B704780B483B0A7
:10164C0000AF786039603B685A783B689B781343ED
:10165C00DBB21A463B689B8813433A6812781A43EC
:10166C007B68C3F86C2500BF0C37BD465DF8047B66
:10167C00704780B483B000AF786039607B683A689B
:10168C00C3F8242500BF0C37BD465DF8047B7047BA
:10169C0080B485B000AFF860B9607A60BA68FB6856
:1016AC00C3F84425FB687A68C3F8482500BF143793
:1016BC00BD465DF8047B704780B485B000AFF86020
:1016CC00B9607A60BA68FB68C3F83425FB687A683D
:1016DC00C3F8382500BF1437BD465DF8047B70474E
:1016EC0080B483B000AF78607B68D3F83C35184683
:1016FC000C37BD465DF8047B704780B582B000AFF7
:10170C00786039603B681B6919467868FFF7B1FF50
:10171C003B68143319467868FFF790FF3B689B7E53
:10172C0083F00103DBB2002B07D03B6819683B68E0
:10173C005B681A467868FFF748FF3B681B7D012BF6
:10174C000ED13B689B7E83F00103DBB2002B07D0EC
:10175C003B6899683B68DB681A467868FFF749FF75
:10176C00FFF780FE00BF0837BD4680BD80B584B052
:10177C0000AFF860B96011461A460B46FB71134670
:10178C00BB714FF48072B968F86800F078F94FF4C7
:10179C008272B968F86800F072F94FF48472B96813
:1017AC00F86800F06CF94FF48872B968F86800F0CA
:1017BC0066F94FF48E72B968F86800F060F94FF46E
:1017CC009072B968F86800F05AF94FF49272B968DF
:1017DC00F86800F054F94FF4A272B968F86800F098
:1017EC004EF94FF4A672B968F86800F048F94FF456
:1017FC00A872B968F86800F042F94FF4AC72B96895
:10180C00F86800F03CF9FFF72DFEBB79002B03D0F4
:10181C00B968F868FFF78CFEFFF724FE00BF10379D
:10182C00BD4680BD80B586B000AFF860B9607A6007
:10183C007A68B968F86800F075F97861FFF712FEFC
:10184C007B6918461837BD4680BD80B582B000AFA5
:10185C00786039600C217868FFF7DFFEFFF702FE35
:10186C0000BF00224FF48001786800F05BF903465A
:10187C00002BF6D03B68002B13D03B685B68002B29
:10188C000FD004217868FFF7C8FEFFF7EBFD00BF0F
:10189C003A684FF40031786800F044F90346002BA5
:1018AC00F6D000BF0837BD4680BD000080B584B0BF
:1018BC0000AF78600B46FB700023FB600821786852
:1018CC00FFF7ABFEFB78002B0CD00A4BBB60FFF78D
:1018DC00C9FD0022B9687868FFF7A4FFF860FB68BF
:1018EC00002BF6D0FFF7BEFDFB6818461037BD463F
:1018FC0080BD00BF0001400080B584B000AF7860AF
:10190C0039600023FB6000217868FFF786FE3B6896
:10191C00002B0CD0094BBB60FFF7A4FD3A68B968EB
:10192C007868FFF77FFFF860FB68002BF6D0FFF7B5
:10193C0099FDFB6818461037BD4680BD10020200A9
:10194C0080B582B000AF78600B467B807B881946EF
:10195C007868FFF7B0FDFFF785FD00BF0837BD467F
:10196C0080BD80B582B000AF786039603968786826
:10197C00FFF7CBFDFFF776FD00BF0837BD4680BDF6
:10198C0080B582B000AF7860396039687868FFF74D
:10199C00CFFDFFF767FD00BF0837BD4680BD80B5A2
:1019AC0082B000AF7860396039687868FFF7CFFD96
:1019BC00FFF758FD00BF0837BD4680BD80B584B029
:1019CC0000AF7860FFF75CFD7868FFF7CFFDF8603B
:1019DC00FFF756FDFB6818461037BD4680BD80B535
:1019EC0082B000AF78607868FFF7D3FDFFF73AFD5F
:1019FC0000BF0837BD4680BD80B582B000AF7860AF
:101A0C007868FFF7D4FDFFF72DFD00BF0837BD4602
:101A1C0080BD80B582B000AF78600B46FB70FB7860
:101A2C0019467868FFF7F9FDFFF71CFD00BF083772
:101A3C00BD4680BD80B584B000AFF860B9607A60F7
:101A4C00BB68002B06D07A68B968F868FFF720FEEF
:101A5C00FFF708FD00BF1037BD4680BD80B584B0D0
:101A6C0000AFF860B9607A607A68B968F868FFF717
:101A7C0023FEFFF7F7FC00BF1037BD4680BD80B5D5
:101A8C0084B000AFF860B9601346FB80FB88A3F507
:101A9C0080739B08012202FA03F31A46BB681340B9
:101AAC00002B04D0FB881946F868FFF704FD00BF33
:101ABC001037BD4680BD80B584B000AFF860B9600A
:101ACC003B601346FB80FB88A3F580739B080122C7
:101ADC0002FA03F31A46BB681340002B1DD0FB8897
:101AEC001946F868FFF7FCFC0346002B15D0FB8861
:101AFC001946F868FFF7DFFC3B68002B0BD03B68FE
:101B0C001B68FA88A2F580729208012101FA02F290
:101B1C001A433B681A60012300E000231846103773
:101B2C00BD4680BD80B586B000AFF860B9607A6004
:101B3C0000233B61FFF79DFC07F110034FF480720B
:101B4C00B968F868FFF7B7FF07F110034FF482721A
:101B5C00B968F868FFF7AFFF07F110034FF4847210
:101B6C00B968F868FFF7A7FF07F110034FF4887204
:101B7C00B968F868FFF79FFF07F110034FF48E72F6
:101B8C00B968F868FFF797FF07F110034FF49072EC
:101B9C00B968F868FFF78FFF07F110034FF49272E2
:101BAC00B968F868FFF787FF07F110034FF4A272CA
:101BBC00B968F868FFF77FFF07F110034FF4A672BE
:101BCC00B968F868FFF777FF07F110034FF4A872B4
:101BDC00B968F868FFF76FFF07F110034FF4AC72A8
:101BEC00B968F868FFF767FFBB6803F01003002BB8
:101BFC000AD1BB6803F40033002B05D0F868FFF75B
:101C0C006FFD7861FFF73CFCFFF72CFC3B69184635
:101C1C001837BD4680BD000080B584B000AF786039
:101C2C000023FB60786800F09CF80346002B02D080
:101C3C00012B03D004E0054BFB6001E0044BFB607F
:101C4C00FB6818461037BD4680BD00BF0025845088
:101C5C000028845080B586B000AF786008461146E5
:101C6C001A460346FB700B46BB7013467B703B1D3C
:101C7C001846FFF7D1FF78617A687B69803253F898
:101C8C0022303B61114BFB60FB68DB433A6913402C
:101C9C003B61FA78BB785B001A437B789B001A4354
:101CAC0097F820301B021A4397F824301B04134377
:101CBC003A6913433B617A687B698032396943F82E
:101CCC00221000BF1837BD4680BD00BF0F0F0300A8
:101CDC0080B584B002AF7860002301930023009399
:101CEC000023012201217868FFF7B4FF00BF0837F9
:101CFC00BD4680BD80B584B002AF78600B46FB70EA
:101D0C00FB780022019200220092002200217868C8
:101D1C00FFF7A0FF00BF0837BD4680BD80B584B07B
:101D2C0000AF78603B1D1846FFF776FFF8607B68C4
:101D3C00012202FA03F31946F86800F004F800BF18
:101D4C001037BD4680BD80B483B000AF7860396079
:101D5C007B683A689A6000BF0C37BD465DF8047B1F
:101D6C00704780B485B000AF78607B681B68FB60FF
:101D7C00FB6803F01F027B681A60FB685B0918465E
:101D8C001437BD465DF8047B704780B582B000AF58
:101D9C0078607868FFF79CFFFFF764FB00BF08379B
:101DAC00BD4680BD80B582B000AF78600B46FB703D
:101DBC00FB7819467868FFF79DFFFFF753FB00BFD0
:101DCC000837BD4680BD80B582B000AF78607868BA
:101DDC00FFF7A4FFFFF746FB00BF0837BD4680BDE9
:101DEC0080B58AB000AF786039603B6893F82030DA
:101DFC0083F00103DBB2002B19D03B681B68B3F1F5
:101E0C00FF3F09D03B681B681846FFF7DCFF3B68B7
:101E1C001B681846FFF7B9FF3B685B68B3F1FF3FDF
:101E2C0005D03B685B6800211846FFF7BBFF3B6899
:101E3C009B7E012B21D13B6893F8203083F001036A
:101E4C00DBB2002B19D03B68DB68B3F1FF3F05D048
:101E5C003B68DB6800211846FFF7A4FF3B689B68D2
:101E6C00B3F1FF3F09D03B689B681846FFF7ABFF07
:101E7C003B689B681846FFF788FF07F10C030022AC
:101E8C001A605A609A60DA601A615A619A613B680A
:101E9C001B68FB603B685B683B613B689B687B61D4
:101EAC003B68DB68BB613B685B69FB613B6893F833
:101EBC00213087F826303A6807F120031A3210686F
:101ECC00186092889A807B681B6807F10C02114697
:101EDC001846FFF712FC786800F01EF87B681B7937
:101EEC0019460B4A0B46DB000B449B00134404338E
:101EFC001B68002B07D07B6818683B681A7E01238F
:101F0C000449FFF733FC00BF2837BD4680BD00BF36
:101F1C008C0000201003420080B586B000AF7860C2
:101F2C007B681B6803F26453FB607B681B6803F5DA
:101F3C00AD63BB60BB681B68012B05D17B681B685C
:101F4C000C211846FFF765FDFB681B68012B26D199
:101F5C007B681B681846FFF742FD7B681B680421F1
:101F6C001846FFF756FD0023FB7549F640433B61CD
:101F7C00FB681B68002B02D10123FB7505E03B6954
:101F8C00013B3B613B69002BF2D17B681B68184617
:101F9C00FFF714FD7B681B681846FFF72DFD00BF8B
:101FAC001837BD4680BD000080B586B000AFF86024
:101FBC00B9607A60FB681B791A461346DB00134440
:101FCC009B00234A13447B61224B3B617B6993F852
:101FDC002030002B03D0204B3B613B6934E07B6904
:101FEC007A685A60BB68002B1BD0BB681A697B6986
:101FFC001A60BB6893F820107A6992F8223061F36A
:10200C00000382F82230BB6893F821107A6992F8A9
:10201C00223061F3410382F82230B968F868FFF787
:10202C00DFFEFB681B681846FFF7D9FC7B690022B2
:10203C009A617B690022DA617B6900225A617B69B3
:10204C00012283F820203B6918461837BD4680BD15
:10205C008C0000200000AD0B0500AD0B80B588B0E6
:10206C0000AFF860B9607A603B60FB681B791A4678
:10207C001346DB0013449B00314A1344BB61314BC4
:10208C00FB61FB681B68B9681846FFF700FA03464A
:10209C0083F00103DBB2002B03D02B4BFB61FB69FC
:1020AC004AE0F86800F056F80346002B03D0274BA3
:1020BC00FB61FB6940E0BB697A685A61BB69BA682D
:1020CC009A60FB681B684FF490711846FFF738FC58
:1020DC00FB681B684FF4AC711846FFF731FCFB68CA
:1020EC001868BB699968BB695B691A46FFF7A2FC63
:1020FC00FB681A68BB695B68002B0CBF01230023CB
:10210C00DBB219461046FFF7D1FB7861BB695B68FF
:10211C00002B10D17B6903F48003002B02D00C4BF5
:10212C00FB6105E0FB681B6800211846FFF78DFB7F
:10213C00BB6900225A61FB6918462037BD4680BD39
:10214C008C0000200000AD0B0A00AD0B0B00AD0B9A
:10215C000800AD0B80B483B000AF78607B681B794E
:10216C001946094A0B46DB000B449B0013441433FD
:10217C001B68002B14BF01230023DBB218460C375D
:10218C00BD465DF8047B70478C00002080B58AB09A
:10219C0000AFF860B9607A60FB681B791A46134689
:1021AC00DB0013449B00584A1344BB61574B7B62C2
:1021BC00FB681B68B9681846FFF769F9034683F09A
:1021CC000103DBB2002B03D0514B7B627B6A97E09F
:1021DC00002387F82330BB695B68002B06D0FB68B3
:1021EC001B684FF404711846FFF7D9FBBB699B6958
:1021FC00002B15D0BB69DB69002B0ED0BB695B686B
:10220C00002B06D0FB681B684FF404711846FFF7CF
:10221C00B7FB404B7B627B6A72E0012387F823306B
:10222C0097F8233083F00103DBB2002B09D0BB6994
:10223C007A689A61BB69BA68DA60BB690022DA61B4
:10224C0005E0BB69BA681A61BB697A68DA61FB6838
:10225C001B684FF488711846FFF772FBFB681B680C
:10226C004FF4A2711846FFF76BFBFB681B687A688A
:10227C00B9681846FFF7F2FB0023FB6197F823308F
:10228C00002B06D0FB681B6820211846FFF769FB62
:10229C0014E0BB69DB683B61BB699B697B61FB68D4
:1022AC001A68BB695B68002B02D107F1100300E0D0
:1022BC00002319461046FFF71FFBF861BB695B68EA
:1022CC00002B11D1BB6900229A61FB6903F40073E6
:1022DC00002B01D0104B7B62FB6903F40033002B05
:1022EC000DD00E4B7B620AE0BB69002283F82120E3
:1022FC00FB681B684FF404711846FFF741FB7B6ABF
:10230C0018462837BD4680BD8C0000200000AD0B60
:10231C000A00AD0B0B00AD0B0100AD0B0800AD0BB3
:10232C0080B483B000AF7860044A7B68136000BF50
:10233C000C37BD465DF8047B704700BF10E000E031
:10234C0080B483B000AF7860044A7B68536000BFF0
:10235C000C37BD465DF8047B704700BF10E000E011
:10236C0080B500AF6FF07F40FFF7EAFF0520FFF765
:10237C00D7FF00BF80BD000080B400AF034B9B684B
:10238C001846BD465DF8047B704700BF10E000E0C6
:10239C0080B400AF034B00229A6000BFBD465DF8CD
:1023AC00047B704710E000E02DE9F04FADF2444D96
:1023BC0000AF00F049FFDD4A07F57E731268114645
:1023CC0019800233120C1A7007F57E73032118461C
:1023DC0000F026FE00F032FC0346C7F890330023D1
:1023EC00C7F8383407F57E730321184600F018FE41
:1023FC0007F58863A3F57473CD4A184611464FF45C
:10240C0048731A4602F035F80023C7F834341DE03F
:10241C0007F17002D7F83434322101FB03F3D618DC
:10242C0007F17002D7F83434322101FB03F3134463
:10243C00184602F02BF80346DBB21946304600F082
:10244C00EFFDD7F834340133C7F83434D7F83434CB
:10245C000F2BDDDD0023C7F8303407F10C03B54931
:10246C00184601F0FEFF07F10C03184602F00EF8B7
:10247C000346DAB207F10C031146184600F0D0FD02
:10248C0000F01EFEC7F83004D7F83034013B0D2B9A
:10249C0000F29B8301A252F823F000BFE12400005C
:1024AC0063250000DB25000051260000C326000038
:1024BC0065270000D527000041280000AF28000048
:1024CC004729000085290000252A00006B2A0000FE
:1024DC003D2B000007F57E730321184600F0A0FD8C
:1024EC00D7F89033184600F0CDFB0346002B1ED0D6
:1024FC0007F10C039049184601F0B3FF07F10C03E8
:10250C00184601F0C3FF0346DAB207F10C0311467B
:10251C00184600F085FD00F0D3FDC7F8FC0307F565
:10252C006473D7F8FC13184600F0C1FE61E307F1A1
:10253C000C038249184601F094FF07F10C0318466E
:10254C0001F0A4FF0346DAB207F10C03114618465A
:10255C0000F066FD4DE307F57E730321184600F08D
:10256C005FFDD7F83834002B1DD107F10C037449EB
:10257C00184601F076FF07F10C03184601F086FFB0
:10258C000346DAB207F10C031146184600F048FD79
:10259C0000F096FDC7F83804D7F8380400F0A6FE12
:1025AC00C7F83C0425E307F10C036649184601F013
:1025BC0058FF07F10C03184601F068FF0346DAB226
:1025CC0007F10C031146184600F02AFD11E307F53C
:1025DC007E730321184600F023FDD7F8903318467C
:1025EC0000F050FB0346002B18D107F56473184616
:1025FC0000F082FB07F10C035349184601F031FF40
:10260C0007F10C03184601F041FF0346DAB207F15B
:10261C000C031146184600F003FDEAE207F10C0327
:10262C004A49184601F01DFF07F10C03184601F04A
:10263C002DFF0346DAB207F10C031146184600F0E1
:10264C00EFFCD6E207F57E730321184600F0E8FC98
:10265C00D7F83834002B1AD00023C7F83834D7F801
:10266C003C0401F083FB07F10C033949184601F0D7
:10267C00F8FE07F10C03184601F008FF0346DAB226
:10268C0007F10C031146184600F0CAFCB1E207F141
:10269C000C032E49184601F0E4FE07F10C03184612
:1026AC0001F0F4FE0346DAB207F10C0311461846AA
:1026BC0000F0B6FC9DE2D7F89033184600F0E2FA31
:1026CC000346002B1ED107F57E730321184600F03C
:1026DC00A7FC07F10C031F49184601F0C2FE07F1D5
:1026EC000C03184601F0D2FE0346DAB207F10C03D4
:1026FC001146184600F094FCD7F89033184600F0B9
:10270C0015FB76E207F10C031049184601F0A9FEFF
:10271C0007F10C03184601F0B9FE0346DAB207F1D3
:10272C000C031146184600F07BFC62E22C070000FB
:10273C0030070000000400000C0400001C04000022
:10274C005C0400006C040000AC040000C404000035
:10275C00DC040000F8040000D7F83834002B1FD03C
:10276C0007F57E730321184600F05AFC07F10C03A1
:10277C00E149184601F075FE07F10C03184601F00B
:10278C0085FE0346DAB207F10C031146184600F039
:10279C0047FCD7F83814D7F83C0400F021FE28E2A7
:1027AC0007F10C03D549184601F05BFE07F10C0349
:1027BC00184601F06BFE0346DAB207F10C03114622
:1027CC00184600F02DFC14E207F57E730321184621
:1027DC0000F026FCD7F89033184600F0E0FD0346D5
:1027EC00002B13D007F10C03C549184601F039FE34
:1027FC0007F10C03184601F049FE0346DAB207F163
:10280C000C031146184600F00BFCF2E107F10C0327
:10281C00BC49184601F025FE07F10C03184601F0DF
:10282C0035FE0346DAB207F10C031146184600F0E8
:10283C00F7FBDEE107F57E730321184600F0F0FB91
:10284C00D7F83814D7F83C0400F076FD0346002B7B
:10285C0013D007F10C03AC49184601F002FE07F146
:10286C000C03184601F012FE0346DAB207F10C0312
:10287C001146184600F0D4FBBBE107F10C03A34949
:10288C00184601F0EEFD07F10C03184601F0FEFDB1
:10289C000346DAB207F10C031146184600F0C0FBF0
:1028AC00A7E107F57E730321184600F0B9FB07F189
:1028BC000C039749184601F0D4FD07F10C03184698
:1028CC0001F0E4FD0346DAB207F10C031146184699
:1028DC0000F0A6FBFFF75CFDFFF74EFDC7F8080400
:1028EC0007F56473184600F007FEFFF745FDC7F8BF
:1028FC000404D7F80824D7F80434D31AC7F80034E2
:10290C0007F10C038349184601F0ABFD07F10C03EA
:10291C00184601F0BBFD0346DAB207F10C03114671
:10292C00184600F07DFBD7F8003400221C461546F3
:10293C002046294600F0D6FB5BE107F57E730321A8
:10294C00184600F06DFB07F10C037349184601F0B3
:10295C0088FD07F10C03184601F098FD0346DAB226
:10296C0007F10C031146184600F05AFB07F5647387
:10297C00184600F0F4FD3CE107F57E730321184680
:10298C0000F04EFB07F10C036449184601F069FD99
:10299C0007F10C03184601F079FD0346DAB207F192
:1029AC000C031146184600F03BFBFFF7F1FCFFF758
:1029BC00E3FCC7F81404D7F83C04D7F83834013BCF
:1029CC001A46002100F025FEFFF7D6FCC7F81004CC
:1029DC00D7F81424D7F81034D31AC7F80C3407F1ED
:1029EC000C034F49184601F03CFD07F10C03184647
:1029FC0001F04CFD0346DAB207F10C031146184600
:102A0C0000F00EFBD7F80C34002298469146404655
:102A1C00494600F067FBECE007F57E73032118468E
:102A2C0000F0FEFA07F10C033E49184601F019FDBF
:102A3C0007F10C03184601F029FD0346DAB207F141
:102A4C000C031146184600F0EBFAD7F83834013B6A
:102A5C001A460021D7F83C0400F057FEC9E007F5F0
:102A6C007E730321184600F0DBFA07F10C032E49A4
:102A7C00184601F0F6FC07F10C03184601F006FDB0
:102A8C000346DAB207F10C031146184600F0C8FAF7
:102A9C00FFF77EFCFFF770FCC7F82004D7F838145A
:102AAC00D7F83C0400F052FFFFF766FCC7F81C0493
:102ABC00D7F82024D7F81C34D31AC7F8183407F1E8
:102ACC000C031A49184601F0CCFC07F10C0318460C
:102ADC0001F0DCFC0346DAB207F10C031146184690
:102AEC0000F09EFAD7F8183400229A4693465046C6
:102AFC00594600F0F7FA7CE00405000010050000D0
:102B0C00280500003C050000540500006C05000081
:102B1C0088050000A8050000C4050000E8050000B9
:102B2C0008060000200600004006000064060000B5
:102B3C0007F57E730321184600F072FA07F10C03B7
:102B4C003949184601F08DFC07F10C03184601F0C9
:102B5C009DFC0346DAB207F10C031146184600F04F
:102B6C005FFAFFF715FCFFF707FCC7F82C04D7F842
:102B7C003814D7F83C0400F029FFFFF7FDFBC7F829
:102B8C002804D7F82C24D7F82834D31AC7F82434BF
:102B9C0007F10C032549184601F063FC07F10C03FF
:102BAC00184601F073FC0346DAB207F10C03114628
:102BBC00184600F035FAD7F8243400223B607A60CE
:102BCC00D7E9000100F08EFA13E007F10C03184965
:102BDC00184601F046FC07F10C03184601F056FCB0
:102BEC000346DAB207F10C031146184600F018FA46
:102BFC0000BF07F10C030F49184601F032FC07F136
:102C0C000C03184601F042FC0346DAB207F10C0340
:102C1C001146184600F004FA074801F021FB00F0B9
:102C2C004FFAFFF7DFBB00BF80060000A4060000D0
:102C3C00C0060000E40600000807000080B400AFE6
:102C4C0000231846BD465DF8047B704780B584B000
:102C5C0000AF78600C2001F081F80346FB60FB6844
:102C6C00002B01D1002309E0FB687A681A60FB682D
:102C7C0000225A60FB6800229A60FB6818461037E5
:102C8C00BD4680BD80B483B000AF78607B68002BFC
:102C9C0001D1012300E0002318460C37BD465DF836
:102CAC00047B704780B584B000AF786039603868B9
:102CBC00FFF7CCFFB860BB68002B19D07B681B6892
:102CCC00002B03D17B68BA681A6012E07B681B6822
:102CDC00FB6002E0FB685B68FB60FB685B68002BD9
:102CEC00F8D1FB68BA685A60BB68FA689A6000E071
:102CFC0000BF1037BD4680BD80B584B000AF786092
:102D0C007B681B68FB6007E0FB685B68BB60F8686E
:102D1C0001F02CF8BB68FB60FB68002BF4D17B68DE
:102D2C0000221A6000BF1037BD4680BD80B586B04A
:102D3C0000AF78607B687B617B68002B3ED0234AB8
:102D4C0007F110031268114619800233120C1A7025
:102D5C001F4A07F10C031268114619800233120C3A
:102D6C001A701C4B1B68184600F0BCF907F11003D5
:102D7C00184601F08BFB024607F11003114618466A
:102D8C0000F04EF97B681B68184600F0ABF907F1B0
:102D9C000C03184601F07AFB024607F10C031146AE
:102DAC00184600F03DF90B4B1B680133094A1360C0
:102DBC007B685B681846FFF7B9FF02E0054B012200
:102DCC001A6000BF1837BD4680BD00BF680A0000FE
:102DDC006C0A00000000002080B400AF00BFBD46AC
:102DEC005DF8047B7047000080B584B000AF78605C
:102DFC000023FB60786800F0D2F80346002B02D069
:102E0C00012B03D004E0054BFB6001E0044BFB609D
:102E1C00FB6818461037BD4680BD00BF00258450A6
:102E2C000028845080B586B000AF78600846114603
:102E3C001A460346FB700B46BB7013467B703B1D5A
:102E4C001846FFF7D1FF78617A687B69803253F8B6
:102E5C0022303B61114BFB60FB68DB433A6913404A
:102E6C003B61FA78BB785B001A437B789B001A4372
:102E7C0097F820301B021A4397F824301B04134395
:102E8C003A6913433B617A687B698032396943F84C
:102E9C00221000BF1837BD4680BD00BF0F0F0300C6
:102EAC0080B584B002AF78600023019300230093B7
:102EBC000023012201217868FFF7B4FF00BF083717
:102ECC00BD4680BD80B584B002AF78600B46FB7008
:102EDC00FB780022019200220092002200217868E7
:102EEC00FFF7A0FF00BF0837BD4680BD80B584B09A
:102EFC0000AF78603B1D1846FFF776FFF8607B68E3
:102F0C00012202FA03F31946F86800F02CF800BF0E
:102F1C001037BD4680BD80B584B000AF78603B1DD6
:102F2C001846FFF761FFF8607B68012202FA03F391
:102F3C001946F86800F025F800BF1037BD4680BD73
:102F4C0080B582B000AF786039603B68002B03D14C
:102F5C007868FFF7E0FF02E07868FFF7C7FF00BF73
:102F6C000837BD4680BD80B483B000AF786039604F
:102F7C007B683A689A6000BF0C37BD465DF8047BED
:102F8C00704780B483B000AF786039607B683A6872
:102F9C00DA6000BF0C37BD465DF8047B704780B427
:102FAC0085B000AF78607B681B68FB60FB6803F042
:102FBC001F027B681A60FB685B0918461437BD4614
:102FCC005DF8047B704780B483B000AF78607B6899
:102FDC00D3F8043518460C37BD465DF8047B7047B2
:102FEC0080B584B000AF7860FFF7F6FE7868FFF725
:102FFC00EAFFF860FFF7F0FEFB6818461037BD4695
:10300C0080BD80B582B000AF78607B681B681846C5
:10301C00FFF7E6FF034618460837BD4680BD0000A3
:10302C0080B582B000AF78600B46FB70FA78002355
:10303C0079680348FFF712F800BF0837BD4680BD1A
:10304C000400002080B586B000AF786039607B68E2
:10305C00002B02D03B68012B01D8002327E0002372
:10306C007B6117E007F10F03012219461248FFF7A5
:10307C008DF838613B69114A934201D0002316E068
:10308C00FB7B0D2B0CD07B695A1C7A617A6813443C
:10309C00FA7B1A703B68013B7A699A42E2D300E0F2
:1030AC0000BF7A687B69134400221A70012318460A
:1030BC001837BD4680BD00BF040000200000AD0BDA
:1030CC0080B59AB000AF3B1D64211846FFF7BAFFDC
:1030DC003B1D184600F02CFE034618466837BD46CB
:1030EC0080BD000080B59EB000AFC7E9000107F1BC
:1030FC000C00D7E90023124901F0C4F878677B6F04
:10310C00002B02DD7B6F632B01D9002313E007F149
:10311C000C03184601F0BAF9024607F10C01002322
:10312C000848FEF79BFF38673B6F074A93420CBF7A
:10313C0001230023DBB218467837BD4680BD00BFA3
:10314C00800A0000040000200000AD0B80B58AB09E
:10315C0000AF3B4624220021184601F0F6F8142358
:10316C003B6016237B604FF0FF33BB604FF0FF33A7
:10317C00FB604FF0EB737B6107233B763B460022F1
:10318C0019460748FEF710FF78627B6A054A93429E
:10319C0002D1054B01221A7000BF2837BD4680BDF5
:1031AC00040000200000AD0BB000002080B500AF83
:1031BC00FFF7D6F81C20FFF773FE1D20FFF770FEFB
:1031CC001E20FFF76DFE1F20FFF76AFE01211C2059
:1031DC00FFF7B6FE01211D20FFF7B2FE01211E20D4
:1031EC00FFF7AEFE01211F20FFF7AAFE03211720D7
:1031FC00FFF768FE03211820FFF764FE0321082067
:10320C00FFF760FE03210920FFF75CFE00BF80BDC5
:10321C0080B584B000AF0A4A3B1D92E803001860E9
:10322C00043319803B1D00221946064800F0F6FCB9
:10323C00F860044800F046FD00BF1037BD4680BD65
:10324C00840A00000C00002080B500AFFFF77EFF61
:10325C00FFF7ACFFFFF7DCFF00BF80BD80B582B08D
:10326C0000AF0648FFF7CDFE03467B607B6818462F
:10327C0000F032FE00BF0837BD4680BD0C000020B8
:10328C0080B582B000AF7860396000F053FE024622
:10329C0039687B68CB1A013392FBF3F101FB03F322
:1032AC00D21A7B68134418460837BD4680BD80B5DA
:1032BC0084B000AF78603960FFF7D0FF0023FB606B
:1032CC000BE039680120FFF7DBFFB860B96878685C
:1032DC00FFF7E8FCFB680133FB60FA683B689A4235
:1032EC00EFDB00BF00BF1037BD4680BD90B585B089
:1032FC0000AF7860FFF7B2FF7B689B00184600F0C8
:10330C002DFD0346BB600023FB600CE0FB689B00BB
:10331C00BA68D41879680120FFF7B2FF034623601E
:10332C00FB680133FB60FA687B689A42EEDBBB6892
:10333C0018461437BD4690BD80B485B000AF786098
:10334C0039600023FB601EE0FB689B007A68134425
:10335C001A68FB6801339B0079680B441B689A421E
:10336C000EDBFB689B007A6813441A68FB68013318
:10337C009B0079680B441B689A4201D0002308E03B
:10338C00FB680133FB603B68013BFA689A42DBDB6C
:10339C00012318461437BD465DF8047B704780B591
:1033AC0082B000AF78607B68002B03D07B685B68D1
:1033BC00002B01D101230EE07B681A687B685B68E7
:1033CC001B689A4206DC7B685B681846FFF7E7FFD0
:1033DC00034600E0002318460837BD4680BD0000B8
:1033EC0080B586B000AF78603960234A07F11003CE
:1033FC001268114619800233120C1A701F4A07F119
:10340C000C031268114619800233120C1A70002337
:10341C007B6127E07B6901331846FFF763FE07F1F8
:10342C001003184601F032F8024607F1100311465A
:10343C001846FFF7F5FD7B699B007A6813441B68FF
:10344C001846FFF74FFE07F10C03184601F01EF863
:10345C00024607F10C0311461846FFF7E1FD7B69A4
:10346C0001337B617A693B689A42D3DB00BF00BFB2
:10347C001837BD4680BD00BF9C0A0000A00A0000A2
:10348C0080B487B000AF786039603B68002B2DD0DA
:10349C003B685B68002B29D03B685B687B613B68B1
:1034AC009B683B617B695B68FB603B69002B02D0CE
:1034BC003B697A695A60FB68002B02D0FB683A685A
:1034CC009A607B693A699A607B693A685A603B6892
:1034DC007A699A603B68FA685A607B681B683A683C
:1034EC009A4204D17B687A691A6000E000BF1C37ED
:1034FC00BD465DF8047B704780B586B000AF786040
:10350C007B68002B27D07B681B68002B23D0002303
:10351C003B6100237B617B681B68FB6010E0FB68F0
:10352C001A68FB685B681B689A4206DDF968786864
:10353C00FFF7A6FF01237B6102E0FB685B68FB6081
:10354C00FB685B683A699A42E9D1FB683B617B692D
:10355C00002BDED100E000BF1837BD4680BD80B522
:10356C0086B000AF78607B68002B4CD07B681B6802
:10357C00002B48D07B681B683B610023FB60002359
:10358C007B613B69BB6010E0BB681A68BB685B6819
:10359C001B689A4206DDB9687868FFF771FF012352
:1035AC007B6102E0BB685B68BB60BB685B68FA6808
:1035BC009A42E9D17B69002B27D000237B61BB6841
:1035CC00FB6012E0BB681A68BB689B681B689A4278
:1035DC0008DABB689B6819467868FFF751FF01232E
:1035EC007B6102E0BB689B68BB60BB689B68002B7F
:1035FC0003D0BA683B699A42E4D1BB683B617B69F2
:10360C00002BBCD102E000BF00E000BF1837BD4664
:10361C0080BD80B586B000AFF860B9607A60BA68DA
:10362C007B689A4213DA7A68B968F86800F013F884
:10363C0078617B69013B1A46B968F868FFF7E9FFC6
:10364C007B6901337A681946F868FFF7E2FF00BF1F
:10365C001837BD4680BD80B48BB000AFF860B96040
:10366C007A607B689B00FA6813441B68FB61BB683B
:10367C00013B7B62BB683B6223E03B6A9B00FA68C0
:10368C0013441B68FA699A4218DC7B6A01337B622B
:10369C007B6A9B00FA6813441B687B613B6A9B0046
:1036AC00FA681A447B6A9B00F9680B4412681A602A
:1036BC003B6A9B00FA6813447A691A603B6A0133CF
:1036CC003B623A6A7B689A42D7DB7B6A01339B0088
:1036DC00FA6813441B68BB617B689B00FA681A4448
:1036EC007B6A01339B00F9680B4412681A607B6893
:1036FC009B00FA681344BA691A607B6A0133184656
:10370C002C37BD465DF8047B704780B586B000AFA2
:10371C00F860B9607A60BA687B689A421BDA7A689A
:10372C00BB68D31ADA0F13445B101A46BB681344F8
:10373C007B617A69B968F868FFF7E7FF7B69013349
:10374C007A681946F868FFF7E0FF7B687A69B96810
:10375C00F86800F004F800BF1837BD4680BD2DE9AD
:10376C00F00F90B000AF78613961FA60BB606B46C6
:10377C001846FA683B69D31A01333B63BA68FB6895
:10378C00D31AFB62396B4B1EBB620A4600233A60AC
:10379C007B604FF000024FF000037E6873013E68BF
:1037AC0043EAD6633E6872010A46002392469B4662
:1037BC004FF000024FF000034FEA4B1343EADA6379
:1037CC004FEA4A120B469B000733DB08DB00ADEBDC
:1037DC00030D6B4603339B089B007B62F96A4B1EFF
:1037EC003B620A460023904699464FF000024FF088
:1037FC0000034FEA491343EAD8634FEA48120A46DA
:10380C00002314461D464FF000024FF000036B01DD
:10381C0043EAD46362010B469B000733DB08DB00F1
:10382C00ADEB030D6B4603339B089B00FB61002340
:10383C00FB630DE03A69FB6B13449B007A691344FC
:10384C0019687B6AFA6B43F82210FB6B0133FB633C
:10385C00FA6B3B6B9A42EDDB0023BB630EE0FB681B
:10386C005A1CBB6B13449B007A6913441968FB699F
:10387C00BA6B43F82210BB6B0133BB63BA6BFB6AA8
:10388C009A42ECDB0023FB630023BB633B697B6345
:10389C0025E07B6AFA6B53F82220FB69B96B53F86D
:1038AC0021309A420CDC7B6B9B007A6913447A6A58
:1038BC00F96B52F821201A60FB6B0133FB630BE0B0
:1038CC007B6B9B007A691344FA69B96B52F821201F
:1038DC001A60BB6B0133BB637B6B01337B63FA6B8D
:1038EC003B6B9A4213DABA6BFB6A9A42D1DB0EE05D
:1038FC007B6B9B007A6913447A6AF96B52F821202E
:10390C001A60FB6B0133FB637B6B01337B63FA6BDC
:10391C003B6B9A42ECDB0EE07B6B9B007A691344A9
:10392C00FA69B96B52F821201A60BB6B0133BB6387
:10393C007B6B01337B63BA6BFB6A9A42ECDB85468B
:10394C0000BF4037BD46BDE8F00F704780B487B06C
:10395C0000AF7860396003237B612CE07B699B00AE
:10396C007A6813441B68FB607B69013B3B610DE08B
:10397C003B699B007A681A443B6901339B00796868
:10398C000B4412681A603B69013B3B613B69012B9C
:10399C0007DD3B699B007A6813441B68FA689A42FE
:1039AC00E6DB3B6901339B007A681344FA681A60C2
:1039BC007B6901337B617A693B689A42CEDB00BF3D
:1039CC0000BF1C37BD465DF8047B704780B487B0E0
:1039DC0000AF7860396000237B6133E07B693B6129
:1039EC007B690133FB6010E0FB689B007A68134431
:1039FC001A683B699B0079680B441B689A4201DA90
:103A0C00FB683B61FB680133FB60FA683B689A42D8
:103A1C00EADB7B699B007A6813441B68BB603B69DB
:103A2C009B007A681A447B699B0079680B44126886
:103A3C001A603B699B007A681344BA681A607B6908
:103A4C0001337B613B68013B7A699A42C6DB00BF5C
:103A5C0000BF1C37BD465DF8047B704780B483B053
:103A6C0000AF78607B681B6800BF0C37BD465DF803
:103A7C00047B704780B400AF00BFBD465DF8047B8B
:103A8C00704780B483B000AF786039607B683A6867
:103A9C00C3F8042300BF0C37BD465DF8047B7047A8
:103AAC0080B582B000AF78600B467B807B887A68EB
:103ABC00134400221A607B887A6813441846FFF777
:103ACC00CDFF00BF0837BD4680BD80B483B000AFCA
:103ADC00786039607B683A68C3F8082500BF0C37FA
:103AEC00BD465DF8047B704780B483B000AF78604E
:103AFC000B46FB70FA787B6813441A46012313605B
:103B0C0000BF0C37BD465DF8047B704780B483B0B2
:103B1C0000AF0346FB71FB799B0003F5A0739BB2CE
:103B2C0018460C37BD465DF8047B704780B582B0F3
:103B3C0000AF786039603B681B6819467868FFF7FE
:103B4C00C4FFFFF797FF00BF0837BD4680BD80B5A7
:103B5C0086B000AFF860B96011461A460B46FB718F
:103B6C001346BB714FF48072B968F86800F03AF8EC
:103B7C004FF48272B968F86800F034F800237B6166
:103B8C000DE07B69DBB21846FFF7C0FF03461A460F
:103B9C00B968F86800F026F87B6901337B617B69B2
:103BAC00032BEED9FFF766FFBB79002B03D0B96866
:103BBC00F868FFF766FFFFF75DFF00BF1837BD46DB
:103BCC0080BD80B582B000AF78600B46FB70FB788F
:103BDC0019467868FFF788FFFFF74CFF00BF0837DE
:103BEC00BD4680BD80B584B000AFF860B9601346A7
:103BFC00FB80FB88A3F580739B08012202FA03F378
:103C0C001A46BB681340002B04D0FB881946F86891
:103C1C00FFF746FF00BF1037BD4680BD80B586B0AC
:103C2C0000AFF860B9607A60FB685B791946224A8C
:103C3C007B6842F83130FB685B791F4ADB00134428
:103C4C001B79002B03D01D4B7B617B6930E0FB683B
:103C5C001868BB689A7800230021FFF778FFBB68CF
:103C6C001B883B61FB681B6807F110021146184664
:103C7C00FFF75CFFFB685B791846BB6819790E4A45
:103C8C00C30013440A465A71FB685B791846BB683B
:103C9C00D978094AC30013440A469A71FB685B79C8
:103CAC00054ADB00134401221A71054B7B617B69C9
:103CBC0018461837BD4680BDB40000200500AD0B7A
:103CCC000000AD0B80B582B000AF78607B681B68DC
:103CDC0000211846FFF775FF7B685B79044ADB000F
:103CEC00134402221A7100BF0837BD4680BD00BFC5
:103CFC00B40000201FB514461A46094B05461B6834
:103D0C00D8684CB1074B00910749CDE901342B46DB
:103D1C0000F076FA00F0C2FB044B1C46F3E700BF40
:103D2C0020000020A30A0000B00A0000DE0A0000F8
:103D3C000A22002100F0B6B908B5064B044613B1AF
:103D4C000021AFF30080044B1B6803B19847204659
:103D5C0001F0D6FA00000000FC010020024B0146E5
:103D6C00186800F02DB800BF20000020024B01465F
:103D7C00186800F09BBB00BF2000002070B50F4EF0
:103D8C000C460546316811B900F01CFB3060214629
:103D9C00284600F017FB431C03D14FF0FF3420469C
:103DAC0070BDC41C24F00304A042F8D0211A28468C
:103DBC0000F008FB0130F2D1EFE700BFBC0000209F
:103DCC002DE9F843CD1C064625F0030508350C2DCE
:103DDC0038BF0C25002D01DBA94204D90C2333601C
:103DEC000020BDE8F883DFF8D48000F069F8D8F83B
:103DFC0000301C4644BB29463046FFF7BFFF431C2E
:103E0C00044658D1D8F800402746002F43D1002C47
:103E1C004BD023683946304604EB030900F0D2FA44
:103E2C00814542D1216830466D1A2946FFF7A6FF1D
:103E3C0001303AD023682B442360D8F800305A68FC
:103E4C0062BBC8F800700FE02268521B20D40B2A0A
:103E5C0017D96119A342256018BF5960636808BF60
:103E6C00C8F8001062514B60304600F02FF804F196
:103E7C000B00231D20F00700C21A1CBF1B1AA350F5
:103E8C00AFE76268A3420CBFC8F800205A60EBE7AA
:103E9C0023466468AEE73C467F68B6E71A465B6823
:103EAC00A342FBD100235360DEE70C233046336082
:103EBC0000F00CF894E70560D6E700BFC0000020C6
:103ECC00014800F0CCBA00BF04020020014800F009
:103EDC00C7BA00BF0402002038B5104B04461D6859
:103EEC002B6BB3B91820FFF739FF0246286320B9B2
:103EFC000B4B46210B48FFF7FDFE0B490B4BC0E962
:103F0C0000130B4B002183600B2383810120C2E93A
:103F1C0004012B6B00221C615A6138BD200000206B
:103F2C00DF0A0000F60A00000E33CDAB34126DE64A
:103F3C00ECDE0500164B10B51C68236BB3B91820CA
:103F4C00FFF70CFF0246206320B9124B5221124896
:103F5C00FFF7D0FE1149124BC0E90013114B0021A1
:103F6C0083600B2383810120C2E90401216B0E487D
:103F7C000B694C690D4A584302FB0400A3FB023247
:103F8C00013340EB0200C1E9043020F0004010BDC9
:103F9C0020000020DF0A0000F60A00000E33CDAB33
:103FAC0034126DE6ECDE05002DF451582D7F954C46
:103FBC00242B2DE9F0478646904601D8012B06D1DB
:103FCC0000F022FA162303600020BDE8F0870D46AE
:103FDC0033482A4615F8014B065D16F00806F8D151
:103FEC002D2C10D12C780126951C33F0100215D1F4
:103FFC00302C0DD12A7802F0DF02582A08D16C78C7
:10400C00023510230AE02B2C04BF2C78951CECE70E
:10401C00002BF6D1302C14BF0A23082306F1004CD8
:10402C0000220CF1FF3C1046BCFBF3F903FB19CA50
:10403C00A4F13007092F0FD83C46A3421BDD571CB7
:10404C0007D0814514D301D1A24511DB00FB0340FD
:10405C00012215F8014BEBE7A4F14107192F01D808
:10406C00373CEAE7A4F16107192F04D8573CE4E781
:10407C004FF0FF32EDE7531C08D122236046CEF8F7
:10408C000030B8F1000FA0D0691E06E006B1404226
:10409C00B8F1000F99D0002AF6D1C8F8001094E7B7
:1040AC00830B000013460A46014602480068FFF7DE
:1040BC007FBF00BF20000020002310B504468360A2
:1040CC00818119464366C28108228361C0E90033AD
:1040DC00C0E904335C3000F038F90D4B24626362A4
:1040EC000C4BA3620C4BE3620C4B23630C4B9C42BA
:1040FC0006D003F16802944202D0D0339C4205D121
:10410C0004F15800BDE8104000F0A8B910BD00BF84
:10411C00D1420000F34200002B4300004F4300004B
:10412C00C4000020024A0349034800F07BB800BFDA
:10413C0014000020A94E00002400002041680C4B04
:10414C00994210B5044601D000F0A8FEA168094BB5
:10415C00994202D0204600F0A1FEE168064B99423C
:10416C0004D02046BDE8104000F098BE10BD00BF42
:10417C00C40000202C0100209401002010B50B4B32
:10418C0004210B4C0B4A20461A600022FFF794FFC7
:10419C0004F1680001220921FFF78EFF04F1D00021
:1041AC0002221221BDE81040FFF786BFFC0100205F
:1041BC00C400002031410000014800F050B900BF9C
:1041CC0005020020014800F04BB900BF0502002099
:1041DC0010B50446FFF7F0FF236A1BB1BDE8104091
:1041EC00FFF7F0BF044B2362044B1B68002BF5D187
:1041FC00FFF7C4FFF2E700BF49410000FC010020BB
:10420C000EB403B503AB0146054853F8042B006804
:10421C00019300F017FB02B05DF804EB03B070479C
:10422C00200000202DE9F843074688461446002656
:10423C00D4E90195B9F1010905D52468002CF7D111
:10424C003046BDE8F883AB89012B07D9B5F90E30A0
:10425C00013303D029463846C04706436835E9E7A1
:10426C000FB407B5064904AB086853F8042B8168F2
:10427C00019300F0E7FA03B05DF804EB04B070476B
:10428C00200000200EB400B59CB06FF000411DABB7
:10429C0002900690079104910848094953F8042BA1
:1042AC00059102A90068019300F0A6F9029B002277
:1042BC001A701CB05DF804EB03B0704720000020AE
:1042CC000802FFFF10B50C46B1F90E1000F068F8AB
:1042DC000028ABBF636DA3891B1823F48053ACBFBC
:1042EC006365A38110BD2DE9F0411F468B890546FE
:1042FC000C46DB05164605D502230022B1F90E103B
:10430C0000F03CF8A3893246B4F90E10284623F489
:10431C008053A3813B46BDE8F04100F063B810B573
:10432C000C46B1F90E1000F029F8431CA38915BFF7
:10433C00606523F4805343F48053A38118BFA38199
:10434C0010BDB1F90E1000F009B8024403469342B7
:10435C0000D1704703F8011BF9E7000038B50023C2
:10436C00054D044608462B6000F07AFF431C02D131
:10437C002B6803B1236038BD0002002038B5044619
:10438C00064D0846114600222A601A4600F090FF9E
:10439C00431C02D12B6803B1236038BD00020020FE
:1043AC0038B50446064D0846114600222A601A46C6
:1043BC0000F086FF431C02D12B6803B1236038BD8B
:1043CC000002002038B50023054D044608462B603A
:1043DC0000F07EFF431C02D12B6803B1236038BD73
:1043EC000002002038B50446064D0846114600224E
:1043FC002A601A4600F07CFF431C02D12B6803B1E3
:10440C00236038BD00020020014B1868704700BFC4
:10441C002000002070B50D4D00260D4C641BA4101F
:10442C00A64209D10B4D00260B4C00F06BFF641B10
:10443C00A410A64205D170BD55F8043B013698472F
:10444C00EEE755F8043B01369847F2E71C530000A1
:10445C001C5300001C530000205300007047704791
:10446C007047034611F8012B03F8012B002AF9D1F0
:10447C0070470A44431E914200D1704710B511F8A1
:10448C00014B914203F8014FF9D110BD034613F8CB
:10449C00012B002AFBD1181A01387047062008B5E9
:1044AC0000F0FAFD012000F02BFF000038B50546A6
:1044BC00002941D051F8043C0C1F002BB8BFE41864
:1044CC00FFF7FEFC1D4A136833B96360146028467D
:1044DC00BDE83840FFF7FABCA34208D92068211880
:1044EC008B4201BF19685B6809182160EDE71A4619
:1044FC005B680BB1A342FAD911685018A0420BD1DA
:10450C0020680144501811608342E0D118685B6840
:10451C00084453601060DAE702D90C232B60D6E70D
:10452C00206821188B4202BF19685B680918636008
:10453C0008BF21605460CAE738BD00BFC00000202E
:10454C002DE9F0471F468E6882460C46BE429046C7
:10455C000B682DD8B1F90C2012F4906F26D0656938
:10456C00096905EB4505A3EB01097B1C05EBD5752A
:10457C004B446D109D4238BF1D46530527D5294627
:10458C00FFF71EFC064660B34A462169FFF771FF30
:10459C00A38923F4906343F08003A38126614E44E6
:1045AC006561A5EB090526603E46A560BE4200D9B3
:1045BC003E4632464146206800F02CFDA3680020A0
:1045CC009B1BA360236833442360BDE8F0872A4615
:1045DC0000F08CFD06460028E0D121695046FFF71B
:1045EC0065FF0C234FF0FF30CAF80030A38943F06D
:1045FC004003A381E9E700002DE9F04F98468B8931
:10460C009DB007461B060D46144610D50B6973B9B1
:10461C004021FFF7D5FB2860286130B90C233B60A3
:10462C004FF0FF301DB0BDE8F08F40236B610023CD
:10463C00CDF80C804FF00109DFF8A08109932023FD
:10464C008DF8293030238DF82A3023469A4613F8FA
:10465C00012B0AB1252AF9D1BAEB040B0BD05B461E
:10466C00224629463846FFF76BFF013000F0A78041
:10467C00099A5A4409929AF80030002B00F09F8056
:10468C0000234FF0FF320AF1010A049307938DF8CF
:10469C0053301A93CDE90523544605224F4814F89C
:1046AC00011B00F015FD049AD8B9D00644BF202395
:1046BC008DF85330110744BF2B238DF853309AF8E3
:1046CC0000302A2B15D0079A544600204FF00A0CC4
:1046DC00214611F8013B303B092B4BD9B0B1079265
:1046EC0014E0A0EB0803A24609FA03F31343049366
:1046FC00D2E7039B191D1B68002B0391BBBF5B42C8
:10470C0042F0020207930793B8BF049223782E2B32
:10471C000AD163782A2B32D1039B02341A1D1B68F1
:10472C0043EAE37303920593DFF8C0A003222178D8
:10473C00504600F0CDFC38B1A0EB0A004022049B9F
:10474C00013482401343049314F8011B06222448BD
:10475C008DF8281000F0BCFC002836D0214B1BBB78
:10476C00039B073323F0070308330393099B33445C
:10477C0009936AE70CFB02320C460120A8E70023E0
:10478C0001344FF00A0C19460593204610F8012B02
:10479C00303A092A03D9002BC6D00591C4E70CFB8B
:1047AC00012104460123F0E703AB2A4604A938464D
:1047BC0000930D4BAFF30080421C0646D6D1AB895B
:1047CC005B063FF52DAF09982CE703AB2A4604A9ED
:1047DC0038460093044B00F0BFF9EDE74F0B000097
:1047EC00590B0000000000004D450000550B000067
:1047FC009368013B002B936010B408DA9469A342D0
:10480C0001DB0A2903D15DF8044B00F06FBB136880
:10481C00581C1060084619705DF8044B7047F8B5C9
:10482C0006460F461446D518AC4201D1002007E0CD
:10483C003A4614F8011B3046FFF7DAFF431CF3D15C
:10484C00F8BD00002DE9F04F0D469DB0144698467A
:10485C00064618B1036A0BB9FFF7BAFC6B6ED907A1
:10486C0005D4AB899A0502D4A86DFFF7F8FDAB8986
:10487C001B0701D52B699BB92946304600F074FB08
:10488C0070B16B6EDC0704D54FF0FF301DB0BDE886
:10489C00F08FAB899805F7D4A86DFFF7E1FDF3E72E
:1048AC000023CDF80C804FF00109DFF8B481099397
:1048BC0020238DF8293030238DF82A3023469A4650
:1048CC0013F8012B0AB1252AF9D1BAEB040B0BD042
:1048DC005B46224629463046FFF7A1FF013000F027
:1048EC00A780099A5A4409929AF80030002B00F0DC
:1048FC009F8000234FF0FF320AF1010A04930793C3
:10490C008DF853301A93CDE90523544605225448AB
:10491C0014F8011B00F0DCFB049AD8B9D10644BF93
:10492C0020238DF85330130744BF2B238DF85330BD
:10493C009AF800302A2B15D0079A544600204FF0D5
:10494C000A0C214611F8013B303B092B4BD9B0B175
:10495C00079214E0A0EB0803A24609FA03F31343F1
:10496C000493D2E7039B191D1B68002B0391BBBF5B
:10497C005B4242F0020207930793B8BF049223787C
:10498C002E2B0AD163782A2B32D1039B02341A1DA9
:10499C001B6843EAE37303920593DFF8D4A0032268
:1049AC002178504600F094FB38B1A0EB0A0040226D
:1049BC00049B013482401343049314F8011B062218
:1049CC0028488DF8281000F083FB00283FD0264B98
:1049DC001BBB039B073323F0070308330393099B8B
:1049EC003B4409936AE70CFB02320C460120A8E712
:1049FC00002301344FF00A0C19460593204610F899
:104A0C00012B303A092A03D9002BC6D00591C4E7F3
:104A1C000CFB012104460123F0E703AB2A4604A951
:104A2C0030460093114BAFF300800746781CD6D16B
:104A3C006B6ED90705D4AB899A0502D4A86DFFF724
:104A4C000FFDAB895B063FF51FAF09981EE703AB63
:104A5C002A4604A930460093044B00F07DF8E4E7A5
:104A6C004F0B0000590B0000000000002B48000009
:104A7C00550B00002DE9F047164698468A68074604
:104A8C000B690C46DDF820909342B8BF1346336097
:104A9C0091F843200AB1013333602368990642BF71
:104AAC00336802333360256815F0060506D104F12E
:104ABC00190AE36832689B1AAB422BDC94F843303A
:104ACC002268003B18BF0123920630D404F1430244
:104ADC0041463846C847013023D023681A3454F86D
:104AEC000A2C03F00603042B0ABF54F80E5C0025B5
:104AFC0033684FF0000608BFED1A54F8123C08BF9B
:104B0C0025EAE5759342C4BF9B1AED18B5421AD13C
:104B1C00002008E00123524641463846C847013080
:104B2C0003D14FF0FF30BDE8F0870135C1E7E11844
:104B3C005A1C30200233224481F8430094F845106B
:104B4C0082F84310C2E70123224641463846C84743
:104B5C000130E6D00136D9E72DE9FF470F7E9146AB
:104B6C0080460C46782F9A460C9E01F1430207D8DA
:104B7C00622F0AD8002F00F0D180582F00F0B88097
:104B8C0004F1420684F842703AE0A7F16303152B56
:104B9C00F6D801A151F823F0FD4B0000114C000098
:104BAC008D4B00008D4B00008D4B00008D4B000099
:104BBC00114C00008D4B00008D4B00008D4B000004
:104BCC008D4B00000F4D00003B4C0000C94C000009
:104BDC008D4B00008D4B0000314D00008D4B0000C3
:104BEC003B4C00008D4B00008D4B0000D14C000065
:104BFC0033681A1D1B68326004F1420684F8423097
:104C0C0001239CE033682068191D3160060601D52C
:104C1C001D6803E04506FBD5B3F90050002D03DAFF
:104C2C002D236D4284F8433058480A2311E0216843
:104C3C003368080653F8045B02D4490648BFADB28A
:104C4C006F2F3360514814BF0A230823002184F8C6
:104C5C0043106668002EA66005DB21682E4321F008
:104C6C00040121604BD01646B5FBF3F103FB115741
:104C7C00C75D06F8017D2F460D46BB42F4D9082BC3
:104C8C000BD12368DF0708D5236961689942DEBF21
:104C9C00302306F8013C06F1FF36921B22614B468D
:104CAC0003AA21464046CDF800A0FFF7E3FE0130F1
:104CBC004AD14FF0FF3004B0BDE8F087236843F0D1
:104CCC002003236078273248236884F845701F0638
:104CDC00316851F8045B02D45F0648BFADB2316055
:104CEC00D90744BF43F0200323601DB11023ADE767
:104CFC002648E9E7236823F020032360F6E71646ED
:104D0C00BDE733682568181D616930602E061B6885
:104D1C0001D5196002E06806FBD519800023164600
:104D2C002361BCE7336800211A1D32601E6862687B
:104D3C00304600F0CDF908B1801B606063682361D8
:104D4C00002384F84330AAE723693246494640469B
:104D5C00D0470130ADD023689B0713D4E068039B88
:104D6C009842B8BF1846A6E701233246494640464A
:104D7C00D04701309DD00135E36803995B1AAB42F3
:104D8C00F2DCEBE7002504F11906F5E7600B0000F7
:104D9C00710B0000B1F90C202DE9F0411607054606
:104DAC000C4654D44B68002B02DC0B6C002B48DDFA
:104DBC00E66A002E45D0002312F480522F68216A37
:104DCC002B6030D0626DA389590705D56368D21A60
:104DDC00636B0BB1236CD21A0023E66A216A284656
:104DEC00B047431CA38906D129681D292BD82A4A10
:104DFC00CA40D60727D50022D904626022692260F6
:104E0C0004D5421C01D12B6803B96065616B2F601E
:104E1C00B9B104F14403994202D02846FFF746FB8E
:104E2C00002363630DE001232846B0470246501C63
:104E3C00C9D12B68002BC6D01D2B01D0162B1DD130
:104E4C002F60002021E043F040031BB21AE00F69F1
:104E5C00002FF6D093070E680F600CBF4B69002330
:104E6C00A6EB07088B60B8F1000FEADD43463A4623
:104E7C00216A2846A66AB047002808DCB4F90C3031
:104E8C0043F040034FF0FF30A381BDE8F0810744AD
:104E9C00A8EB0008E7E700BF0100402038B50B691C
:104EAC0005460C4613B90025284638BD18B1036ACF
:104EBC000BB9FFF78DF9B4F90C30002BF3D0626EFF
:104ECC00D00704D4990502D4A06DFFF7C8FA284680
:104EDC002146FFF75FFF636E0546DA07E4D4A3892A
:104EEC009B05E1D4A06DFFF7BBFADDE7F8B50E46E4
:104EFC001446054618B1036A0BB9FFF769F9A369A3
:104F0C00A360A3891A0701D5236943B92146284612
:104F1C0000F02AF818B14FF0FF373846F8BD236877
:104F2C00F6B222693746981A6369834205DC21463A
:104F3C002846FFF7B3FF0028EDD1A368013BA3601F
:104F4C0023685A1C22601E70431C62699A4204D06A
:104F5C00A389DB07E1D50A2EDFD121462846FFF7CE
:104F6C009DFF0028D9D0D6E738B5294B05460C460D
:104F7C00186818B1036A0BB9FFF72AF9B4F90C30A9
:104F8C00190722D4DA0607D409222A6043F0400319
:104F9C004FF0FF30A38133E0580712D5616B41B15C
:104FAC0004F14403994202D02846FFF77FFA00230C
:104FBC006363A38923F02403A38100236360236923
:104FCC002360A38943F00803A38123694BB9A38908
:104FDC0003F42073B3F5007F03D02146284600F07C
:104FEC00D8F8B4F90C3013F001020AD00022A260F8
:104FFC0062695242A261226942B913F08000C5D1A4
:10500C0038BD990758BF6269A260F4E70020F7E742
:10501C0020000020884210B501EB020402D9844222
:10502C00234607D8431EA14208D011F8012B03F8E0
:10503C00012FF8E7024401468A4200D110BD13F853
:10504C00014D02F8014DF7E71F2938B505460C460E
:10505C0004D9162303604FF0FF3038BDC26B12B178
:10506C0052F821304BB9284600F030F82246014660
:10507C002846BDE8384000F017B8012B0AD0591C5F
:10508C0003D1162303600120E7E70021204642F8F4
:10509C00241098470020E0E7024B01461868FFF700
:1050AC00D3BF00BF2000002038B50023064D0446B6
:1050BC00084611462B6000F0F3F8431C02D12B6814
:1050CC0003B1236038BD00BF0002002000F0D8B847
:1050DC00C9B20346024410B59342184601D10020D0
:1050EC0003E0047801338C42F6D110BD2DE9F04178
:1050FC00074614460D4621B91146BDE8F041FEF7AE
:10510C005FBE2AB92546FFF7D1F92846BDE8F081E4
:10511C0000F09EF88442064602D8B4EB500FF4D847
:10512C0021463846FEF74CFE804608B94546ECE76A
:10513C00B4422246294628BF3246FFF79AF929463F
:10514C003846FFF7B3F9F1E770B50C46B1F90E101C
:10515C0096B0154600291E460CDAA389002113F0DF
:10516C00800F14BF40234FF48063002031602B600C
:10517C0016B070BD6A4600F049F80028EDDB0199C5
:10518C0001F47041A1F50053594259414FF4806329
:10519C00EBE78B89F7B59D0706460C4607D504F15E
:1051AC004703236023610123636103B0F0BD01ABAE
:1051BC006A46FFF7C9FF009F054630463946FEF7A1
:1051CC00FFFD48B9B4F90C309A05EED423F0030373
:1051DC0043F00203A381E2E7A389206043F080033C
:1051EC00A381019BC4E904075BB1B4F90E103046EE
:1051FC0000F01EF828B1A38923F0030343F0010348
:10520C00A381A3891D43A581CFE7000038B50023F6
:10521C00064D0446084611462B6000F029F8431C45
:10522C0002D12B6803B1236038BD00BF00020020FF
:10523C0038B50023054D044608462B6000F028F8CD
:10524C00431C02D12B6803B1236038BD000200203F
:10525C0051F8043C181F002BBCBF0B58C0187047EA
:10526C00024B58224FF0FF301A60704700020020AA
:10527C00024B58224FF0FF301A607047000200209A
:10528C00024B58224FF0FF301A607047000200208A
:10529C00024B582200201A60704700BF0002002009
:1052AC00024B58224FF0FF301A607047000200206A
:1052BC00024B58224FF0FF301A607047000200205A
:1052CC00024B58224FF0FF301A607047000200204A
:1052DC00054A0346106810B1034413607047034835
:1052EC0003441360704700BF080200200C0200202A
:1052FC00024B58224FF0FF301A607047000200201A
:10530C00FEE700BFF8B500BFF8BC08BC9E4670476E
:10531C00F90C0000F8B500BFF8BC08BC9E467047FD
:10532C00D10C00001000000000000000017A5200B7
:10533C00027C0E011B0C0D00100000001800000078
:10534C004CF1FFFF10000000000000000000000006
:10535C00A4530000000000201C00000014540000A6
:10536C0070000020000000001454000070000020A9
:10537C000000000014540000700000200000000029
:10538C0070000020670000000C02002000000000EC
:08539C000C02002000000000DB
:1053A4000100000000800050000000000040015097
:1053B400140004000000000003000000C4000020EA
:1053C4002400002000000000C40000202C01002064
:1053D4009401002000000000000000000000000014
:1053E40000000000000000000000000000000000B9
:1053F40000000000000000000000000000000000A9
:105404000000000000000000000000000000000098
:0400000300000D9953
:00000001FF
